{
  "address": "0x1659fFb2d40DfB1671Ac226A0D9Dcc95A774521A",
  "abi": [
    {
      "inputs": [
        {
          "internalType": "address",
          "name": "owner",
          "type": "address"
        },
        {
          "internalType": "address",
          "name": "predicateProxy",
          "type": "address"
        }
      ],
      "stateMutability": "nonpayable",
      "type": "constructor"
    },
    {
      "anonymous": false,
      "inputs": [
        {
          "indexed": true,
          "internalType": "address",
          "name": "owner",
          "type": "address"
        },
        {
          "indexed": true,
          "internalType": "address",
          "name": "spender",
          "type": "address"
        },
        {
          "indexed": false,
          "internalType": "uint256",
          "name": "value",
          "type": "uint256"
        }
      ],
      "name": "Approval",
      "type": "event"
    },
    {
      "anonymous": false,
      "inputs": [
        {
          "indexed": true,
          "internalType": "address",
          "name": "previousOwner",
          "type": "address"
        },
        {
          "indexed": true,
          "internalType": "address",
          "name": "newOwner",
          "type": "address"
        }
      ],
      "name": "OwnershipTransferred",
      "type": "event"
    },
    {
      "anonymous": false,
      "inputs": [
        {
          "indexed": true,
          "internalType": "bytes32",
          "name": "role",
          "type": "bytes32"
        },
        {
          "indexed": true,
          "internalType": "bytes32",
          "name": "previousAdminRole",
          "type": "bytes32"
        },
        {
          "indexed": true,
          "internalType": "bytes32",
          "name": "newAdminRole",
          "type": "bytes32"
        }
      ],
      "name": "RoleAdminChanged",
      "type": "event"
    },
    {
      "anonymous": false,
      "inputs": [
        {
          "indexed": true,
          "internalType": "bytes32",
          "name": "role",
          "type": "bytes32"
        },
        {
          "indexed": true,
          "internalType": "address",
          "name": "account",
          "type": "address"
        },
        {
          "indexed": true,
          "internalType": "address",
          "name": "sender",
          "type": "address"
        }
      ],
      "name": "RoleGranted",
      "type": "event"
    },
    {
      "anonymous": false,
      "inputs": [
        {
          "indexed": true,
          "internalType": "bytes32",
          "name": "role",
          "type": "bytes32"
        },
        {
          "indexed": true,
          "internalType": "address",
          "name": "account",
          "type": "address"
        },
        {
          "indexed": true,
          "internalType": "address",
          "name": "sender",
          "type": "address"
        }
      ],
      "name": "RoleRevoked",
      "type": "event"
    },
    {
      "anonymous": false,
      "inputs": [
        {
          "indexed": true,
          "internalType": "address",
          "name": "from",
          "type": "address"
        },
        {
          "indexed": true,
          "internalType": "address",
          "name": "to",
          "type": "address"
        },
        {
          "indexed": false,
          "internalType": "uint256",
          "name": "value",
          "type": "uint256"
        }
      ],
      "name": "Transfer",
      "type": "event"
    },
    {
      "inputs": [],
      "name": "DEFAULT_ADMIN_ROLE",
      "outputs": [
        {
          "internalType": "bytes32",
          "name": "",
          "type": "bytes32"
        }
      ],
      "stateMutability": "view",
      "type": "function"
    },
    {
      "inputs": [],
      "name": "DOMAIN_SEPARATOR",
      "outputs": [
        {
          "internalType": "bytes32",
          "name": "",
          "type": "bytes32"
        }
      ],
      "stateMutability": "view",
      "type": "function"
    },
    {
      "inputs": [],
      "name": "PREDICATE_ROLE",
      "outputs": [
        {
          "internalType": "bytes32",
          "name": "",
          "type": "bytes32"
        }
      ],
      "stateMutability": "view",
      "type": "function"
    },
    {
      "inputs": [
        {
          "internalType": "address",
          "name": "owner",
          "type": "address"
        },
        {
          "internalType": "address",
          "name": "spender",
          "type": "address"
        }
      ],
      "name": "allowance",
      "outputs": [
        {
          "internalType": "uint256",
          "name": "",
          "type": "uint256"
        }
      ],
      "stateMutability": "view",
      "type": "function"
    },
    {
      "inputs": [
        {
          "internalType": "address",
          "name": "spender",
          "type": "address"
        },
        {
          "internalType": "uint256",
          "name": "amount",
          "type": "uint256"
        }
      ],
      "name": "approve",
      "outputs": [
        {
          "internalType": "bool",
          "name": "",
          "type": "bool"
        }
      ],
      "stateMutability": "nonpayable",
      "type": "function"
    },
    {
      "inputs": [
        {
          "internalType": "address",
          "name": "account",
          "type": "address"
        }
      ],
      "name": "balanceOf",
      "outputs": [
        {
          "internalType": "uint256",
          "name": "",
          "type": "uint256"
        }
      ],
      "stateMutability": "view",
      "type": "function"
    },
    {
      "inputs": [],
      "name": "decimals",
      "outputs": [
        {
          "internalType": "uint8",
          "name": "",
          "type": "uint8"
        }
      ],
      "stateMutability": "view",
      "type": "function"
    },
    {
      "inputs": [
        {
          "internalType": "address",
          "name": "spender",
          "type": "address"
        },
        {
          "internalType": "uint256",
          "name": "subtractedValue",
          "type": "uint256"
        }
      ],
      "name": "decreaseAllowance",
      "outputs": [
        {
          "internalType": "bool",
          "name": "",
          "type": "bool"
        }
      ],
      "stateMutability": "nonpayable",
      "type": "function"
    },
    {
      "inputs": [
        {
          "internalType": "bytes32",
          "name": "role",
          "type": "bytes32"
        }
      ],
      "name": "getRoleAdmin",
      "outputs": [
        {
          "internalType": "bytes32",
          "name": "",
          "type": "bytes32"
        }
      ],
      "stateMutability": "view",
      "type": "function"
    },
    {
      "inputs": [
        {
          "internalType": "bytes32",
          "name": "role",
          "type": "bytes32"
        },
        {
          "internalType": "uint256",
          "name": "index",
          "type": "uint256"
        }
      ],
      "name": "getRoleMember",
      "outputs": [
        {
          "internalType": "address",
          "name": "",
          "type": "address"
        }
      ],
      "stateMutability": "view",
      "type": "function"
    },
    {
      "inputs": [
        {
          "internalType": "bytes32",
          "name": "role",
          "type": "bytes32"
        }
      ],
      "name": "getRoleMemberCount",
      "outputs": [
        {
          "internalType": "uint256",
          "name": "",
          "type": "uint256"
        }
      ],
      "stateMutability": "view",
      "type": "function"
    },
    {
      "inputs": [
        {
          "internalType": "bytes32",
          "name": "role",
          "type": "bytes32"
        },
        {
          "internalType": "address",
          "name": "account",
          "type": "address"
        }
      ],
      "name": "grantRole",
      "outputs": [],
      "stateMutability": "nonpayable",
      "type": "function"
    },
    {
      "inputs": [
        {
          "internalType": "bytes32",
          "name": "role",
          "type": "bytes32"
        },
        {
          "internalType": "address",
          "name": "account",
          "type": "address"
        }
      ],
      "name": "hasRole",
      "outputs": [
        {
          "internalType": "bool",
          "name": "",
          "type": "bool"
        }
      ],
      "stateMutability": "view",
      "type": "function"
    },
    {
      "inputs": [
        {
          "internalType": "address",
          "name": "spender",
          "type": "address"
        },
        {
          "internalType": "uint256",
          "name": "addedValue",
          "type": "uint256"
        }
      ],
      "name": "increaseAllowance",
      "outputs": [
        {
          "internalType": "bool",
          "name": "",
          "type": "bool"
        }
      ],
      "stateMutability": "nonpayable",
      "type": "function"
    },
    {
      "inputs": [
        {
          "internalType": "address",
          "name": "user",
          "type": "address"
        },
        {
          "internalType": "uint256",
          "name": "amount",
          "type": "uint256"
        }
      ],
      "name": "mint",
      "outputs": [],
      "stateMutability": "nonpayable",
      "type": "function"
    },
    {
      "inputs": [
        {
          "internalType": "bytes[]",
          "name": "data",
          "type": "bytes[]"
        }
      ],
      "name": "multicall",
      "outputs": [
        {
          "internalType": "bytes[]",
          "name": "results",
          "type": "bytes[]"
        }
      ],
      "stateMutability": "nonpayable",
      "type": "function"
    },
    {
      "inputs": [],
      "name": "name",
      "outputs": [
        {
          "internalType": "string",
          "name": "",
          "type": "string"
        }
      ],
      "stateMutability": "view",
      "type": "function"
    },
    {
      "inputs": [
        {
          "internalType": "address",
          "name": "owner",
          "type": "address"
        }
      ],
      "name": "nonces",
      "outputs": [
        {
          "internalType": "uint256",
          "name": "",
          "type": "uint256"
        }
      ],
      "stateMutability": "view",
      "type": "function"
    },
    {
      "inputs": [],
      "name": "owner",
      "outputs": [
        {
          "internalType": "address",
          "name": "",
          "type": "address"
        }
      ],
      "stateMutability": "view",
      "type": "function"
    },
    {
      "inputs": [
        {
          "internalType": "address",
          "name": "owner",
          "type": "address"
        },
        {
          "internalType": "address",
          "name": "spender",
          "type": "address"
        },
        {
          "internalType": "uint256",
          "name": "value",
          "type": "uint256"
        },
        {
          "internalType": "uint256",
          "name": "deadline",
          "type": "uint256"
        },
        {
          "internalType": "uint8",
          "name": "v",
          "type": "uint8"
        },
        {
          "internalType": "bytes32",
          "name": "r",
          "type": "bytes32"
        },
        {
          "internalType": "bytes32",
          "name": "s",
          "type": "bytes32"
        }
      ],
      "name": "permit",
      "outputs": [],
      "stateMutability": "nonpayable",
      "type": "function"
    },
    {
      "inputs": [],
      "name": "renounceOwnership",
      "outputs": [],
      "stateMutability": "nonpayable",
      "type": "function"
    },
    {
      "inputs": [
        {
          "internalType": "bytes32",
          "name": "role",
          "type": "bytes32"
        },
        {
          "internalType": "address",
          "name": "account",
          "type": "address"
        }
      ],
      "name": "renounceRole",
      "outputs": [],
      "stateMutability": "nonpayable",
      "type": "function"
    },
    {
      "inputs": [
        {
          "internalType": "bytes32",
          "name": "role",
          "type": "bytes32"
        },
        {
          "internalType": "address",
          "name": "account",
          "type": "address"
        }
      ],
      "name": "revokeRole",
      "outputs": [],
      "stateMutability": "nonpayable",
      "type": "function"
    },
    {
      "inputs": [
        {
          "internalType": "bytes4",
          "name": "interfaceId",
          "type": "bytes4"
        }
      ],
      "name": "supportsInterface",
      "outputs": [
        {
          "internalType": "bool",
          "name": "",
          "type": "bool"
        }
      ],
      "stateMutability": "view",
      "type": "function"
    },
    {
      "inputs": [],
      "name": "symbol",
      "outputs": [
        {
          "internalType": "string",
          "name": "",
          "type": "string"
        }
      ],
      "stateMutability": "view",
      "type": "function"
    },
    {
      "inputs": [],
      "name": "totalSupply",
      "outputs": [
        {
          "internalType": "uint256",
          "name": "",
          "type": "uint256"
        }
      ],
      "stateMutability": "view",
      "type": "function"
    },
    {
      "inputs": [
        {
          "internalType": "address",
          "name": "recipient",
          "type": "address"
        },
        {
          "internalType": "uint256",
          "name": "amount",
          "type": "uint256"
        }
      ],
      "name": "transfer",
      "outputs": [
        {
          "internalType": "bool",
          "name": "",
          "type": "bool"
        }
      ],
      "stateMutability": "nonpayable",
      "type": "function"
    },
    {
      "inputs": [
        {
          "internalType": "address",
          "name": "_tokenAddress",
          "type": "address"
        },
        {
          "internalType": "address",
          "name": "_to",
          "type": "address"
        },
        {
          "internalType": "uint256",
          "name": "_amount",
          "type": "uint256"
        }
      ],
      "name": "transferAnyERC20",
      "outputs": [],
      "stateMutability": "nonpayable",
      "type": "function"
    },
    {
      "inputs": [
        {
          "internalType": "address",
          "name": "sender",
          "type": "address"
        },
        {
          "internalType": "address",
          "name": "recipient",
          "type": "address"
        },
        {
          "internalType": "uint256",
          "name": "amount",
          "type": "uint256"
        }
      ],
      "name": "transferFrom",
      "outputs": [
        {
          "internalType": "bool",
          "name": "",
          "type": "bool"
        }
      ],
      "stateMutability": "nonpayable",
      "type": "function"
    },
    {
      "inputs": [
        {
          "internalType": "address",
          "name": "newOwner",
          "type": "address"
        }
      ],
      "name": "transferOwnership",
      "outputs": [],
      "stateMutability": "nonpayable",
      "type": "function"
    }
  ],
  "transactionHash": "0x28011ce68fce6cbcee4808463c3b221b7cd184d2cae527223b1db5919d511bf0",
  "args": [
    "0x6B566f478b08e9fd3eCb138fdC0D0Fd1305DbcA0",
    "0x9923263fA127b3d1484cFD649df8f1831c2A74e4"
  ],
  "solcInputHash": "079368627b6094ee0e6635fe363dcf60",
  "bytecode": "0x6101406040527f6e71edae12b1b97f4d1f60370fef10105fa2faae0126114a169c64845d6126c9610120908152503480156200003a57600080fd5b5060405162004be338038062004be38339818101604052810190620000609190620007f7565b6040518060400160405280600d81526020017f4461696c79436f70546f6b656e00000000000000000000000000000000000000815250806040518060400160405280600181526020017f31000000000000000000000000000000000000000000000000000000000000008152506040518060400160405280600981526020017f4461696c7920434f5000000000000000000000000000000000000000000000008152506040518060400160405280600681526020017f444c59434f50000000000000000000000000000000000000000000000000000081525081600390805190602001906200015192919062000730565b5080600490805190602001906200016a92919062000730565b50505060008280519060200120905060008280519060200120905060007f8b73c3c69bb8fe3d512ecc4cf759cc79239f7b179b0ffacaa9a75d522b39400f90508260c081815250508160e081815250504660a08181525050620001d58184846200025660201b60201c565b608081815250508061010081815250505050505050506200020b620001ff6200029260201b60201c565b6200029a60201b60201c565b6200023d7f12ff340d0cd9c652c747ca35727e68c547d0f0bfa7758d2e77f75acef481b4f2826200036060201b60201c565b6200024e82620003a860201b60201c565b505062000aaa565b6000838383463060405160200162000273959493929190620008b9565b6040516020818303038152906040528051906020012090509392505050565b600033905090565b6000600860009054906101000a900473ffffffffffffffffffffffffffffffffffffffff16905081600860006101000a81548173ffffffffffffffffffffffffffffffffffffffff021916908373ffffffffffffffffffffffffffffffffffffffff1602179055508173ffffffffffffffffffffffffffffffffffffffff168173ffffffffffffffffffffffffffffffffffffffff167f8be0079c531659141344cd1fd0a4f28419497f9722a3daafe3b4186f6b6457e060405160405180910390a35050565b620003778282620004be60201b6200133c1760201c565b620003a38160076000858152602001908152602001600020620004d460201b6200134a1790919060201c565b505050565b620003b86200029260201b60201c565b73ffffffffffffffffffffffffffffffffffffffff16620003de6200050c60201b60201c565b73ffffffffffffffffffffffffffffffffffffffff161462000437576040517f08c379a00000000000000000000000000000000000000000000000000000000081526004016200042e9062000938565b60405180910390fd5b600073ffffffffffffffffffffffffffffffffffffffff168173ffffffffffffffffffffffffffffffffffffffff161415620004aa576040517f08c379a0000000000000000000000000000000000000000000000000000000008152600401620004a19062000916565b60405180910390fd5b620004bb816200029a60201b60201c565b50565b620004d082826200053660201b60201c565b5050565b600062000504836000018373ffffffffffffffffffffffffffffffffffffffff1660001b6200062860201b60201c565b905092915050565b6000600860009054906101000a900473ffffffffffffffffffffffffffffffffffffffff16905090565b620005488282620006a260201b60201c565b620006245760016006600084815260200190815260200160002060000160008373ffffffffffffffffffffffffffffffffffffffff1673ffffffffffffffffffffffffffffffffffffffff16815260200190815260200160002060006101000a81548160ff021916908315150217905550620005c96200029260201b60201c565b73ffffffffffffffffffffffffffffffffffffffff168173ffffffffffffffffffffffffffffffffffffffff16837f2f8788117e7eff1d82e926ec794901d17c78024a50270940304540a733656f0d60405160405180910390a45b5050565b60006200063c83836200070d60201b60201c565b620006975782600001829080600181540180825580915050600190039060005260206000200160009091909190915055826000018054905083600101600084815260200190815260200160002081905550600190506200069c565b600090505b92915050565b60006006600084815260200190815260200160002060000160008373ffffffffffffffffffffffffffffffffffffffff1673ffffffffffffffffffffffffffffffffffffffff16815260200190815260200160002060009054906101000a900460ff16905092915050565b600080836001016000848152602001908152602001600020541415905092915050565b8280546200073e90620009b3565b90600052602060002090601f016020900481019282620007625760008555620007ae565b82601f106200077d57805160ff1916838001178555620007ae565b82800160010185558215620007ae579182015b82811115620007ad57825182559160200191906001019062000790565b5b509050620007bd9190620007c1565b5090565b5b80821115620007dc576000816000905550600101620007c2565b5090565b600081519050620007f18162000a90565b92915050565b600080604083850312156200080b57600080fd5b60006200081b85828601620007e0565b92505060206200082e85828601620007e0565b9150509250929050565b62000843816200096b565b82525050565b62000854816200097f565b82525050565b6000620008696026836200095a565b9150620008768262000a18565b604082019050919050565b6000620008906020836200095a565b91506200089d8262000a67565b602082019050919050565b620008b381620009a9565b82525050565b600060a082019050620008d0600083018862000849565b620008df602083018762000849565b620008ee604083018662000849565b620008fd6060830185620008a8565b6200090c608083018462000838565b9695505050505050565b6000602082019050818103600083015262000931816200085a565b9050919050565b60006020820190508181036000830152620009538162000881565b9050919050565b600082825260208201905092915050565b6000620009788262000989565b9050919050565b6000819050919050565b600073ffffffffffffffffffffffffffffffffffffffff82169050919050565b6000819050919050565b60006002820490506001821680620009cc57607f821691505b60208210811415620009e357620009e2620009e9565b5b50919050565b7f4e487b7100000000000000000000000000000000000000000000000000000000600052602260045260246000fd5b7f4f776e61626c653a206e6577206f776e657220697320746865207a65726f206160008201527f6464726573730000000000000000000000000000000000000000000000000000602082015250565b7f4f776e61626c653a2063616c6c6572206973206e6f7420746865206f776e6572600082015250565b62000a9b816200096b565b811462000aa757600080fd5b50565b60805160a05160c05160e05161010051610120516140e962000afa600039600061106a0152600061173f0152600061178101526000611760015260006116ec0152600061171401526140e96000f3fe608060405234801561001057600080fd5b50600436106101da5760003560e01c80637ecebe0011610104578063a9059cbb116100a2578063d547741f11610071578063d547741f146105b7578063dd62ed3e146105d3578063e72db5fd14610603578063f2fde38b14610621576101da565b8063a9059cbb1461050b578063ac9650d81461053b578063ca15c8731461056b578063d505accf1461059b576101da565b806391d14854116100de57806391d148541461046f57806395d89b411461049f578063a217fddf146104bd578063a457c2d7146104db576101da565b80637ecebe00146103f15780638da5cb5b146104215780639010d07c1461043f576101da565b8063313ce5671161017c57806340c10f191161014b57806340c10f191461037f5780635b6f547e1461039b57806370a08231146103b7578063715018a6146103e7576101da565b8063313ce567146102f75780633644e5151461031557806336568abe14610333578063395093511461034f576101da565b806318160ddd116101b857806318160ddd1461025d57806323b872dd1461027b578063248a9ca3146102ab5780632f2ff15d146102db576101da565b806301ffc9a7146101df57806306fdde031461020f578063095ea7b31461022d575b600080fd5b6101f960048036038101906101f49190612d31565b61063d565b6040516102069190613309565b60405180910390f35b6102176106b7565b6040516102249190613438565b60405180910390f35b61024760048036038101906102429190612be6565b610749565b6040516102549190613309565b60405180910390f35b610265610767565b60405161027291906136ba565b60405180910390f35b61029560048036038101906102909190612af9565b610771565b6040516102a29190613309565b60405180910390f35b6102c560048036038101906102c09190612c90565b6107f8565b6040516102d29190613324565b60405180910390f35b6102f560048036038101906102f09190612cb9565b610818565b005b6102ff61084c565b60405161030c91906136d5565b60405180910390f35b61031d610855565b60405161032a9190613324565b60405180910390f35b61034d60048036038101906103489190612cb9565b610864565b005b61036960048036038101906103649190612be6565b610898565b6040516103769190613309565b60405180910390f35b61039960048036038101906103949190612be6565b610944565b005b6103b560048036038101906103b09190612af9565b610985565b005b6103d160048036038101906103cc9190612a94565b610a94565b6040516103de91906136ba565b60405180910390f35b6103ef610adc565b005b61040b60048036038101906104069190612a94565b610b64565b60405161041891906136ba565b60405180910390f35b610429610bb4565b60405161043691906132a3565b60405180910390f35b61045960048036038101906104549190612cf5565b610bde565b60405161046691906132a3565b60405180910390f35b61048960048036038101906104849190612cb9565b610c0d565b6040516104969190613309565b60405180910390f35b6104a7610c78565b6040516104b49190613438565b60405180910390f35b6104c5610d0a565b6040516104d29190613324565b60405180910390f35b6104f560048036038101906104f09190612be6565b610d11565b6040516105029190613309565b60405180910390f35b61052560048036038101906105209190612be6565b610dfc565b6040516105329190613309565b60405180910390f35b61055560048036038101906105509190612c22565b610e81565b60405161056291906132e7565b60405180910390f35b61058560048036038101906105809190612c90565b610fff565b60405161059291906136ba565b60405180910390f35b6105b560048036038101906105b09190612b48565b611023565b005b6105d160048036038101906105cc9190612cb9565b611165565b005b6105ed60048036038101906105e89190612abd565b611199565b6040516105fa91906136ba565b60405180910390f35b61060b611220565b6040516106189190613324565b60405180910390f35b61063b60048036038101906106369190612a94565b611244565b005b60007f5a05180f000000000000000000000000000000000000000000000000000000007bffffffffffffffffffffffffffffffffffffffffffffffffffffffff1916827bffffffffffffffffffffffffffffffffffffffffffffffffffffffff191614806106b057506106af8261137a565b5b9050919050565b6060600380546106c69061399a565b80601f01602080910402602001604051908101604052809291908181526020018280546106f29061399a565b801561073f5780601f106107145761010080835404028352916020019161073f565b820191906000526020600020905b81548152906001019060200180831161072257829003601f168201915b5050505050905090565b600061075d6107566113f4565b84846113fc565b6001905092915050565b6000600254905090565b6000823073ffffffffffffffffffffffffffffffffffffffff168173ffffffffffffffffffffffffffffffffffffffff1614156107e3576040517f08c379a00000000000000000000000000000000000000000000000000000000081526004016107da906134ba565b60405180910390fd5b6107ee8585856115c7565b9150509392505050565b600060066000838152602001908152602001600020600101549050919050565b61082282826116bf565b610847816007600085815260200190815260200160002061134a90919063ffffffff16565b505050565b60006012905090565b600061085f6116e8565b905090565b61086e82826117ab565b610893816007600085815260200190815260200160002061182e90919063ffffffff16565b505050565b600061093a6108a56113f4565b8484600160006108b36113f4565b73ffffffffffffffffffffffffffffffffffffffff1673ffffffffffffffffffffffffffffffffffffffff16815260200190815260200160002060008873ffffffffffffffffffffffffffffffffffffffff1673ffffffffffffffffffffffffffffffffffffffff1681526020019081526020016000205461093591906137ce565b6113fc565b6001905092915050565b7f12ff340d0cd9c652c747ca35727e68c547d0f0bfa7758d2e77f75acef481b4f2610976816109716113f4565b61185e565b61098083836118fb565b505050565b61098d6113f4565b73ffffffffffffffffffffffffffffffffffffffff166109ab610bb4565b73ffffffffffffffffffffffffffffffffffffffff1614610a01576040517f08c379a00000000000000000000000000000000000000000000000000000000081526004016109f8906135da565b60405180910390fd5b8273ffffffffffffffffffffffffffffffffffffffff1663a9059cbb83836040518363ffffffff1660e01b8152600401610a3c9291906132be565b602060405180830381600087803b158015610a5657600080fd5b505af1158015610a6a573d6000803e3d6000fd5b505050506040513d601f19601f82011682018060405250810190610a8e9190612c67565b50505050565b60008060008373ffffffffffffffffffffffffffffffffffffffff1673ffffffffffffffffffffffffffffffffffffffff168152602001908152602001600020549050919050565b610ae46113f4565b73ffffffffffffffffffffffffffffffffffffffff16610b02610bb4565b73ffffffffffffffffffffffffffffffffffffffff1614610b58576040517f08c379a0000000000000000000000000000000000000000000000000000000008152600401610b4f906135da565b60405180910390fd5b610b626000611a5b565b565b6000610bad600560008473ffffffffffffffffffffffffffffffffffffffff1673ffffffffffffffffffffffffffffffffffffffff168152602001908152602001600020611b21565b9050919050565b6000600860009054906101000a900473ffffffffffffffffffffffffffffffffffffffff16905090565b6000610c058260076000868152602001908152602001600020611b2f90919063ffffffff16565b905092915050565b60006006600084815260200190815260200160002060000160008373ffffffffffffffffffffffffffffffffffffffff1673ffffffffffffffffffffffffffffffffffffffff16815260200190815260200160002060009054906101000a900460ff16905092915050565b606060048054610c879061399a565b80601f0160208091040260200160405190810160405280929190818152602001828054610cb39061399a565b8015610d005780601f10610cd557610100808354040283529160200191610d00565b820191906000526020600020905b815481529060010190602001808311610ce357829003601f168201915b5050505050905090565b6000801b81565b60008060016000610d206113f4565b73ffffffffffffffffffffffffffffffffffffffff1673ffffffffffffffffffffffffffffffffffffffff16815260200190815260200160002060008573ffffffffffffffffffffffffffffffffffffffff1673ffffffffffffffffffffffffffffffffffffffff16815260200190815260200160002054905082811015610ddd576040517f08c379a0000000000000000000000000000000000000000000000000000000008152600401610dd49061365a565b60405180910390fd5b610df1610de86113f4565b858584036113fc565b600191505092915050565b6000823073ffffffffffffffffffffffffffffffffffffffff168173ffffffffffffffffffffffffffffffffffffffff161415610e6e576040517f08c379a0000000000000000000000000000000000000000000000000000000008152600401610e65906134ba565b60405180910390fd5b610e788484611b49565b91505092915050565b60608282905067ffffffffffffffff811115610ec6577f4e487b7100000000000000000000000000000000000000000000000000000000600052604160045260246000fd5b604051908082528060200260200182016040528015610ef957816020015b6060815260200190600190039081610ee45790505b50905060005b83839050811015610ff857610fa130858584818110610f47577f4e487b7100000000000000000000000000000000000000000000000000000000600052603260045260246000fd5b9050602002810190610f5991906136f0565b8080601f016020809104026020016040519081016040528093929190818152602001838380828437600081840152601f19601f82011690508083019250505050505050611b67565b828281518110610fda577f4e487b7100000000000000000000000000000000000000000000000000000000600052603260045260246000fd5b60200260200101819052508080610ff0906139cc565b915050610eff565b5092915050565b600061101c60076000848152602001908152602001600020611b94565b9050919050565b83421115611066576040517f08c379a000000000000000000000000000000000000000000000000000000000815260040161105d9061351a565b60405180910390fd5b60007f00000000000000000000000000000000000000000000000000000000000000008888886110958c611ba9565b896040516020016110ab9695949392919061333f565b60405160208183030381529060405280519060200120905060006110ce82611c07565b905060006110de82878787611c21565b90508973ffffffffffffffffffffffffffffffffffffffff168173ffffffffffffffffffffffffffffffffffffffff161461114e576040517f08c379a00000000000000000000000000000000000000000000000000000000081526004016111459061359a565b60405180910390fd5b6111598a8a8a6113fc565b50505050505050505050565b61116f8282611dac565b611194816007600085815260200190815260200160002061182e90919063ffffffff16565b505050565b6000600160008473ffffffffffffffffffffffffffffffffffffffff1673ffffffffffffffffffffffffffffffffffffffff16815260200190815260200160002060008373ffffffffffffffffffffffffffffffffffffffff1673ffffffffffffffffffffffffffffffffffffffff16815260200190815260200160002054905092915050565b7f12ff340d0cd9c652c747ca35727e68c547d0f0bfa7758d2e77f75acef481b4f281565b61124c6113f4565b73ffffffffffffffffffffffffffffffffffffffff1661126a610bb4565b73ffffffffffffffffffffffffffffffffffffffff16146112c0576040517f08c379a00000000000000000000000000000000000000000000000000000000081526004016112b7906135da565b60405180910390fd5b600073ffffffffffffffffffffffffffffffffffffffff168173ffffffffffffffffffffffffffffffffffffffff161415611330576040517f08c379a0000000000000000000000000000000000000000000000000000000008152600401611327906134da565b60405180910390fd5b61133981611a5b565b50565b6113468282611dd5565b5050565b6000611372836000018373ffffffffffffffffffffffffffffffffffffffff1660001b611eb6565b905092915050565b60007f7965db0b000000000000000000000000000000000000000000000000000000007bffffffffffffffffffffffffffffffffffffffffffffffffffffffff1916827bffffffffffffffffffffffffffffffffffffffffffffffffffffffff191614806113ed57506113ec82611f26565b5b9050919050565b600033905090565b600073ffffffffffffffffffffffffffffffffffffffff168373ffffffffffffffffffffffffffffffffffffffff16141561146c576040517f08c379a00000000000000000000000000000000000000000000000000000000081526004016114639061363a565b60405180910390fd5b600073ffffffffffffffffffffffffffffffffffffffff168273ffffffffffffffffffffffffffffffffffffffff1614156114dc576040517f08c379a00000000000000000000000000000000000000000000000000000000081526004016114d3906134fa565b60405180910390fd5b80600160008573ffffffffffffffffffffffffffffffffffffffff1673ffffffffffffffffffffffffffffffffffffffff16815260200190815260200160002060008473ffffffffffffffffffffffffffffffffffffffff1673ffffffffffffffffffffffffffffffffffffffff168152602001908152602001600020819055508173ffffffffffffffffffffffffffffffffffffffff168373ffffffffffffffffffffffffffffffffffffffff167f8c5be1e5ebec7d5bd14f71427d1e84f3dd0314c0f7b2291e5b200ac8c7c3b925836040516115ba91906136ba565b60405180910390a3505050565b60006115d4848484611f90565b6000600160008673ffffffffffffffffffffffffffffffffffffffff1673ffffffffffffffffffffffffffffffffffffffff168152602001908152602001600020600061161f6113f4565b73ffffffffffffffffffffffffffffffffffffffff1673ffffffffffffffffffffffffffffffffffffffff1681526020019081526020016000205490508281101561169f576040517f08c379a0000000000000000000000000000000000000000000000000000000008152600401611696906135ba565b60405180910390fd5b6116b3856116ab6113f4565b8584036113fc565b60019150509392505050565b6116c8826107f8565b6116d9816116d46113f4565b61185e565b6116e38383611dd5565b505050565b60007f000000000000000000000000000000000000000000000000000000000000000046141561173a577f000000000000000000000000000000000000000000000000000000000000000090506117a8565b6117a57f00000000000000000000000000000000000000000000000000000000000000007f00000000000000000000000000000000000000000000000000000000000000007f0000000000000000000000000000000000000000000000000000000000000000612211565b90505b90565b6117b36113f4565b73ffffffffffffffffffffffffffffffffffffffff168173ffffffffffffffffffffffffffffffffffffffff1614611820576040517f08c379a00000000000000000000000000000000000000000000000000000000081526004016118179061367a565b60405180910390fd5b61182a828261224b565b5050565b6000611856836000018373ffffffffffffffffffffffffffffffffffffffff1660001b61232d565b905092915050565b6118688282610c0d565b6118f75761188d8173ffffffffffffffffffffffffffffffffffffffff1660146124b3565b61189b8360001c60206124b3565b6040516020016118ac929190613269565b6040516020818303038152906040526040517f08c379a00000000000000000000000000000000000000000000000000000000081526004016118ee9190613438565b60405180910390fd5b5050565b600073ffffffffffffffffffffffffffffffffffffffff168273ffffffffffffffffffffffffffffffffffffffff16141561196b576040517f08c379a00000000000000000000000000000000000000000000000000000000081526004016119629061369a565b60405180910390fd5b611977600083836127ad565b806002600082825461198991906137ce565b92505081905550806000808473ffffffffffffffffffffffffffffffffffffffff1673ffffffffffffffffffffffffffffffffffffffff16815260200190815260200160002060008282546119de91906137ce565b925050819055508173ffffffffffffffffffffffffffffffffffffffff16600073ffffffffffffffffffffffffffffffffffffffff167fddf252ad1be2c89b69c2b068fc378daa952ba7f163c4a11628f55a4df523b3ef83604051611a4391906136ba565b60405180910390a3611a57600083836127b2565b5050565b6000600860009054906101000a900473ffffffffffffffffffffffffffffffffffffffff16905081600860006101000a81548173ffffffffffffffffffffffffffffffffffffffff021916908373ffffffffffffffffffffffffffffffffffffffff1602179055508173ffffffffffffffffffffffffffffffffffffffff168173ffffffffffffffffffffffffffffffffffffffff167f8be0079c531659141344cd1fd0a4f28419497f9722a3daafe3b4186f6b6457e060405160405180910390a35050565b600081600001549050919050565b6000611b3e83600001836127b7565b60001c905092915050565b6000611b5d611b566113f4565b8484611f90565b6001905092915050565b6060611b8c838360405180606001604052806027815260200161408d60279139612808565b905092915050565b6000611ba2826000016128d5565b9050919050565b600080600560008473ffffffffffffffffffffffffffffffffffffffff1673ffffffffffffffffffffffffffffffffffffffff1681526020019081526020016000209050611bf681611b21565b9150611c01816128e6565b50919050565b6000611c1a611c146116e8565b836128fc565b9050919050565b60007f7fffffffffffffffffffffffffffffff5d576e7357a4501ddfe92f46681b20a08260001c1115611c89576040517f08c379a0000000000000000000000000000000000000000000000000000000008152600401611c809061355a565b60405180910390fd5b601b8460ff161480611c9e5750601c8460ff16145b611cdd576040517f08c379a0000000000000000000000000000000000000000000000000000000008152600401611cd49061357a565b60405180910390fd5b600060018686868660405160008152602001604052604051611d0294939291906133f3565b6020604051602081039080840390855afa158015611d24573d6000803e3d6000fd5b505050602060405103519050600073ffffffffffffffffffffffffffffffffffffffff168173ffffffffffffffffffffffffffffffffffffffff161415611da0576040517f08c379a0000000000000000000000000000000000000000000000000000000008152600401611d979061345a565b60405180910390fd5b80915050949350505050565b611db5826107f8565b611dc681611dc16113f4565b61185e565b611dd0838361224b565b505050565b611ddf8282610c0d565b611eb25760016006600084815260200190815260200160002060000160008373ffffffffffffffffffffffffffffffffffffffff1673ffffffffffffffffffffffffffffffffffffffff16815260200190815260200160002060006101000a81548160ff021916908315150217905550611e576113f4565b73ffffffffffffffffffffffffffffffffffffffff168173ffffffffffffffffffffffffffffffffffffffff16837f2f8788117e7eff1d82e926ec794901d17c78024a50270940304540a733656f0d60405160405180910390a45b5050565b6000611ec2838361292f565b611f1b578260000182908060018154018082558091505060019003906000526020600020016000909190919091505582600001805490508360010160008481526020019081526020016000208190555060019050611f20565b600090505b92915050565b60007f01ffc9a7000000000000000000000000000000000000000000000000000000007bffffffffffffffffffffffffffffffffffffffffffffffffffffffff1916827bffffffffffffffffffffffffffffffffffffffffffffffffffffffff1916149050919050565b600073ffffffffffffffffffffffffffffffffffffffff168373ffffffffffffffffffffffffffffffffffffffff161415612000576040517f08c379a0000000000000000000000000000000000000000000000000000000008152600401611ff79061361a565b60405180910390fd5b600073ffffffffffffffffffffffffffffffffffffffff168273ffffffffffffffffffffffffffffffffffffffff161415612070576040517f08c379a00000000000000000000000000000000000000000000000000000000081526004016120679061349a565b60405180910390fd5b61207b8383836127ad565b60008060008573ffffffffffffffffffffffffffffffffffffffff1673ffffffffffffffffffffffffffffffffffffffff16815260200190815260200160002054905081811015612101576040517f08c379a00000000000000000000000000000000000000000000000000000000081526004016120f89061353a565b60405180910390fd5b8181036000808673ffffffffffffffffffffffffffffffffffffffff1673ffffffffffffffffffffffffffffffffffffffff16815260200190815260200160002081905550816000808573ffffffffffffffffffffffffffffffffffffffff1673ffffffffffffffffffffffffffffffffffffffff168152602001908152602001600020600082825461219491906137ce565b925050819055508273ffffffffffffffffffffffffffffffffffffffff168473ffffffffffffffffffffffffffffffffffffffff167fddf252ad1be2c89b69c2b068fc378daa952ba7f163c4a11628f55a4df523b3ef846040516121f891906136ba565b60405180910390a361220b8484846127b2565b50505050565b6000838383463060405160200161222c9594939291906133a0565b6040516020818303038152906040528051906020012090509392505050565b6122558282610c0d565b156123295760006006600084815260200190815260200160002060000160008373ffffffffffffffffffffffffffffffffffffffff1673ffffffffffffffffffffffffffffffffffffffff16815260200190815260200160002060006101000a81548160ff0219169083151502179055506122ce6113f4565b73ffffffffffffffffffffffffffffffffffffffff168173ffffffffffffffffffffffffffffffffffffffff16837ff6391f5c32d9c69d2a47ea670b442974b53935d1edc7fd64eb21e047a839171b60405160405180910390a45b5050565b600080836001016000848152602001908152602001600020549050600081146124a757600060018261235f919061387e565b9050600060018660000180549050612377919061387e565b90508181146124325760008660000182815481106123be577f4e487b7100000000000000000000000000000000000000000000000000000000600052603260045260246000fd5b9060005260206000200154905080876000018481548110612408577f4e487b7100000000000000000000000000000000000000000000000000000000600052603260045260246000fd5b90600052602060002001819055508387600101600083815260200190815260200160002081905550505b8560000180548061246c577f4e487b7100000000000000000000000000000000000000000000000000000000600052603160045260246000fd5b6001900381819060005260206000200160009055905585600101600086815260200190815260200160002060009055600193505050506124ad565b60009150505b92915050565b6060600060028360026124c69190613824565b6124d091906137ce565b67ffffffffffffffff81111561250f577f4e487b7100000000000000000000000000000000000000000000000000000000600052604160045260246000fd5b6040519080825280601f01601f1916602001820160405280156125415781602001600182028036833780820191505090505b5090507f30000000000000000000000000000000000000000000000000000000000000008160008151811061259f577f4e487b7100000000000000000000000000000000000000000000000000000000600052603260045260246000fd5b60200101907effffffffffffffffffffffffffffffffffffffffffffffffffffffffffffff1916908160001a9053507f780000000000000000000000000000000000000000000000000000000000000081600181518110612629577f4e487b7100000000000000000000000000000000000000000000000000000000600052603260045260246000fd5b60200101907effffffffffffffffffffffffffffffffffffffffffffffffffffffffffffff1916908160001a905350600060018460026126699190613824565b61267391906137ce565b90505b600181111561275f577f3031323334353637383961626364656600000000000000000000000000000000600f8616601081106126db577f4e487b7100000000000000000000000000000000000000000000000000000000600052603260045260246000fd5b1a60f81b828281518110612718577f4e487b7100000000000000000000000000000000000000000000000000000000600052603260045260246000fd5b60200101907effffffffffffffffffffffffffffffffffffffffffffffffffffffffffffff1916908160001a905350600485901c94508061275890613970565b9050612676565b50600084146127a3576040517f08c379a000000000000000000000000000000000000000000000000000000000815260040161279a9061347a565b60405180910390fd5b8091505092915050565b505050565b505050565b60008260000182815481106127f5577f4e487b7100000000000000000000000000000000000000000000000000000000600052603260045260246000fd5b9060005260206000200154905092915050565b606061281384612952565b612852576040517f08c379a0000000000000000000000000000000000000000000000000000000008152600401612849906135fa565b60405180910390fd5b6000808573ffffffffffffffffffffffffffffffffffffffff168560405161287a919061321b565b600060405180830381855af49150503d80600081146128b5576040519150601f19603f3d011682016040523d82523d6000602084013e6128ba565b606091505b50915091506128ca828286612965565b925050509392505050565b600081600001805490509050919050565b6001816000016000828254019250508190555050565b60008282604051602001612911929190613232565b60405160208183030381529060405280519060200120905092915050565b600080836001016000848152602001908152602001600020541415905092915050565b600080823b905060008111915050919050565b60608315612975578290506129c5565b6000835111156129885782518084602001fd5b816040517f08c379a00000000000000000000000000000000000000000000000000000000081526004016129bc9190613438565b60405180910390fd5b9392505050565b6000813590506129db81614002565b92915050565b60008083601f8401126129f357600080fd5b8235905067ffffffffffffffff811115612a0c57600080fd5b602083019150836020820283011115612a2457600080fd5b9250929050565b600081519050612a3a81614019565b92915050565b600081359050612a4f81614030565b92915050565b600081359050612a6481614047565b92915050565b600081359050612a798161405e565b92915050565b600081359050612a8e81614075565b92915050565b600060208284031215612aa657600080fd5b6000612ab4848285016129cc565b91505092915050565b60008060408385031215612ad057600080fd5b6000612ade858286016129cc565b9250506020612aef858286016129cc565b9150509250929050565b600080600060608486031215612b0e57600080fd5b6000612b1c868287016129cc565b9350506020612b2d868287016129cc565b9250506040612b3e86828701612a6a565b9150509250925092565b600080600080600080600060e0888a031215612b6357600080fd5b6000612b718a828b016129cc565b9750506020612b828a828b016129cc565b9650506040612b938a828b01612a6a565b9550506060612ba48a828b01612a6a565b9450506080612bb58a828b01612a7f565b93505060a0612bc68a828b01612a40565b92505060c0612bd78a828b01612a40565b91505092959891949750929550565b60008060408385031215612bf957600080fd5b6000612c07858286016129cc565b9250506020612c1885828601612a6a565b9150509250929050565b60008060208385031215612c3557600080fd5b600083013567ffffffffffffffff811115612c4f57600080fd5b612c5b858286016129e1565b92509250509250929050565b600060208284031215612c7957600080fd5b6000612c8784828501612a2b565b91505092915050565b600060208284031215612ca257600080fd5b6000612cb084828501612a40565b91505092915050565b60008060408385031215612ccc57600080fd5b6000612cda85828601612a40565b9250506020612ceb858286016129cc565b9150509250929050565b60008060408385031215612d0857600080fd5b6000612d1685828601612a40565b9250506020612d2785828601612a6a565b9150509250929050565b600060208284031215612d4357600080fd5b6000612d5184828501612a55565b91505092915050565b6000612d668383612e27565b905092915050565b612d77816138b2565b82525050565b6000612d8882613757565b612d928185613785565b935083602082028501612da485613747565b8060005b85811015612de05784840389528151612dc18582612d5a565b9450612dcc83613778565b925060208a01995050600181019050612da8565b50829750879550505050505092915050565b612dfb816138c4565b82525050565b612e0a816138d0565b82525050565b612e21612e1c826138d0565b613a15565b82525050565b6000612e3282613762565b612e3c8185613796565b9350612e4c81856020860161393d565b612e5581613a7d565b840191505092915050565b6000612e6b82613762565b612e7581856137a7565b9350612e8581856020860161393d565b80840191505092915050565b6000612e9c8261376d565b612ea681856137b2565b9350612eb681856020860161393d565b612ebf81613a7d565b840191505092915050565b6000612ed58261376d565b612edf81856137c3565b9350612eef81856020860161393d565b80840191505092915050565b6000612f086018836137b2565b9150612f1382613a8e565b602082019050919050565b6000612f2b6020836137b2565b9150612f3682613ab7565b602082019050919050565b6000612f4e6023836137b2565b9150612f5982613ae0565b604082019050919050565b6000612f71602f836137b2565b9150612f7c82613b2f565b604082019050919050565b6000612f946026836137b2565b9150612f9f82613b7e565b604082019050919050565b6000612fb76022836137b2565b9150612fc282613bcd565b604082019050919050565b6000612fda6002836137c3565b9150612fe582613c1c565b600282019050919050565b6000612ffd601d836137b2565b915061300882613c45565b602082019050919050565b60006130206026836137b2565b915061302b82613c6e565b604082019050919050565b60006130436022836137b2565b915061304e82613cbd565b604082019050919050565b60006130666022836137b2565b915061307182613d0c565b604082019050919050565b6000613089601e836137b2565b915061309482613d5b565b602082019050919050565b60006130ac6028836137b2565b91506130b782613d84565b604082019050919050565b60006130cf6020836137b2565b91506130da82613dd3565b602082019050919050565b60006130f26026836137b2565b91506130fd82613dfc565b604082019050919050565b60006131156025836137b2565b915061312082613e4b565b604082019050919050565b60006131386024836137b2565b915061314382613e9a565b604082019050919050565b600061315b6017836137c3565b915061316682613ee9565b601782019050919050565b600061317e6025836137b2565b915061318982613f12565b604082019050919050565b60006131a16011836137c3565b91506131ac82613f61565b601182019050919050565b60006131c4602f836137b2565b91506131cf82613f8a565b604082019050919050565b60006131e7601f836137b2565b91506131f282613fd9565b602082019050919050565b61320681613926565b82525050565b61321581613930565b82525050565b60006132278284612e60565b915081905092915050565b600061323d82612fcd565b91506132498285612e10565b6020820191506132598284612e10565b6020820191508190509392505050565b60006132748261314e565b91506132808285612eca565b915061328b82613194565b91506132978284612eca565b91508190509392505050565b60006020820190506132b86000830184612d6e565b92915050565b60006040820190506132d36000830185612d6e565b6132e060208301846131fd565b9392505050565b600060208201905081810360008301526133018184612d7d565b905092915050565b600060208201905061331e6000830184612df2565b92915050565b60006020820190506133396000830184612e01565b92915050565b600060c0820190506133546000830189612e01565b6133616020830188612d6e565b61336e6040830187612d6e565b61337b60608301866131fd565b61338860808301856131fd565b61339560a08301846131fd565b979650505050505050565b600060a0820190506133b56000830188612e01565b6133c26020830187612e01565b6133cf6040830186612e01565b6133dc60608301856131fd565b6133e96080830184612d6e565b9695505050505050565b60006080820190506134086000830187612e01565b613415602083018661320c565b6134226040830185612e01565b61342f6060830184612e01565b95945050505050565b600060208201905081810360008301526134528184612e91565b905092915050565b6000602082019050818103600083015261347381612efb565b9050919050565b6000602082019050818103600083015261349381612f1e565b9050919050565b600060208201905081810360008301526134b381612f41565b9050919050565b600060208201905081810360008301526134d381612f64565b9050919050565b600060208201905081810360008301526134f381612f87565b9050919050565b6000602082019050818103600083015261351381612faa565b9050919050565b6000602082019050818103600083015261353381612ff0565b9050919050565b6000602082019050818103600083015261355381613013565b9050919050565b6000602082019050818103600083015261357381613036565b9050919050565b6000602082019050818103600083015261359381613059565b9050919050565b600060208201905081810360008301526135b38161307c565b9050919050565b600060208201905081810360008301526135d38161309f565b9050919050565b600060208201905081810360008301526135f3816130c2565b9050919050565b60006020820190508181036000830152613613816130e5565b9050919050565b6000602082019050818103600083015261363381613108565b9050919050565b600060208201905081810360008301526136538161312b565b9050919050565b6000602082019050818103600083015261367381613171565b9050919050565b60006020820190508181036000830152613693816131b7565b9050919050565b600060208201905081810360008301526136b3816131da565b9050919050565b60006020820190506136cf60008301846131fd565b92915050565b60006020820190506136ea600083018461320c565b92915050565b6000808335600160200384360303811261370957600080fd5b80840192508235915067ffffffffffffffff82111561372757600080fd5b60208301925060018202360383131561373f57600080fd5b509250929050565b6000819050602082019050919050565b600081519050919050565b600081519050919050565b600081519050919050565b6000602082019050919050565b600082825260208201905092915050565b600082825260208201905092915050565b600081905092915050565b600082825260208201905092915050565b600081905092915050565b60006137d982613926565b91506137e483613926565b9250827fffffffffffffffffffffffffffffffffffffffffffffffffffffffffffffffff0382111561381957613818613a1f565b5b828201905092915050565b600061382f82613926565b915061383a83613926565b9250817fffffffffffffffffffffffffffffffffffffffffffffffffffffffffffffffff048311821515161561387357613872613a1f565b5b828202905092915050565b600061388982613926565b915061389483613926565b9250828210156138a7576138a6613a1f565b5b828203905092915050565b60006138bd82613906565b9050919050565b60008115159050919050565b6000819050919050565b60007fffffffff0000000000000000000000000000000000000000000000000000000082169050919050565b600073ffffffffffffffffffffffffffffffffffffffff82169050919050565b6000819050919050565b600060ff82169050919050565b60005b8381101561395b578082015181840152602081019050613940565b8381111561396a576000848401525b50505050565b600061397b82613926565b9150600082141561398f5761398e613a1f565b5b600182039050919050565b600060028204905060018216806139b257607f821691505b602082108114156139c6576139c5613a4e565b5b50919050565b60006139d782613926565b91507fffffffffffffffffffffffffffffffffffffffffffffffffffffffffffffffff821415613a0a57613a09613a1f565b5b600182019050919050565b6000819050919050565b7f4e487b7100000000000000000000000000000000000000000000000000000000600052601160045260246000fd5b7f4e487b7100000000000000000000000000000000000000000000000000000000600052602260045260246000fd5b6000601f19601f8301169050919050565b7f45434453413a20696e76616c6964207369676e61747572650000000000000000600082015250565b7f537472696e67733a20686578206c656e67746820696e73756666696369656e74600082015250565b7f45524332303a207472616e7366657220746f20746865207a65726f206164647260008201527f6573730000000000000000000000000000000000000000000000000000000000602082015250565b7f416464726573732063616e206e6f742062652074686520746f6b656e20636f6e60008201527f7472616374277320616464726573730000000000000000000000000000000000602082015250565b7f4f776e61626c653a206e6577206f776e657220697320746865207a65726f206160008201527f6464726573730000000000000000000000000000000000000000000000000000602082015250565b7f45524332303a20617070726f766520746f20746865207a65726f20616464726560008201527f7373000000000000000000000000000000000000000000000000000000000000602082015250565b7f1901000000000000000000000000000000000000000000000000000000000000600082015250565b7f45524332305065726d69743a206578706972656420646561646c696e65000000600082015250565b7f45524332303a207472616e7366657220616d6f756e742065786365656473206260008201527f616c616e63650000000000000000000000000000000000000000000000000000602082015250565b7f45434453413a20696e76616c6964207369676e6174757265202773272076616c60008201527f7565000000000000000000000000000000000000000000000000000000000000602082015250565b7f45434453413a20696e76616c6964207369676e6174757265202776272076616c60008201527f7565000000000000000000000000000000000000000000000000000000000000602082015250565b7f45524332305065726d69743a20696e76616c6964207369676e61747572650000600082015250565b7f45524332303a207472616e7366657220616d6f756e742065786365656473206160008201527f6c6c6f77616e6365000000000000000000000000000000000000000000000000602082015250565b7f4f776e61626c653a2063616c6c6572206973206e6f7420746865206f776e6572600082015250565b7f416464726573733a2064656c65676174652063616c6c20746f206e6f6e2d636f60008201527f6e74726163740000000000000000000000000000000000000000000000000000602082015250565b7f45524332303a207472616e736665722066726f6d20746865207a65726f20616460008201527f6472657373000000000000000000000000000000000000000000000000000000602082015250565b7f45524332303a20617070726f76652066726f6d20746865207a65726f2061646460008201527f7265737300000000000000000000000000000000000000000000000000000000602082015250565b7f416363657373436f6e74726f6c3a206163636f756e7420000000000000000000600082015250565b7f45524332303a2064656372656173656420616c6c6f77616e63652062656c6f7760008201527f207a65726f000000000000000000000000000000000000000000000000000000602082015250565b7f206973206d697373696e6720726f6c6520000000000000000000000000000000600082015250565b7f416363657373436f6e74726f6c3a2063616e206f6e6c792072656e6f756e636560008201527f20726f6c657320666f722073656c660000000000000000000000000000000000602082015250565b7f45524332303a206d696e7420746f20746865207a65726f206164647265737300600082015250565b61400b816138b2565b811461401657600080fd5b50565b614022816138c4565b811461402d57600080fd5b50565b614039816138d0565b811461404457600080fd5b50565b614050816138da565b811461405b57600080fd5b50565b61406781613926565b811461407257600080fd5b50565b61407e81613930565b811461408957600080fd5b5056fe416464726573733a206c6f772d6c6576656c2064656c65676174652063616c6c206661696c6564a26469706673582212203cdbf57073d4d437f48876e653effc59e9fd79f49235d6df676c8ebe51ed122764736f6c63430008040033",
  "devdoc": {
    "kind": "dev",
    "methods": {
      "DOMAIN_SEPARATOR()": {
        "details": "See {IERC20Permit-DOMAIN_SEPARATOR}."
      },
      "allowance(address,address)": {
        "details": "See {IERC20-allowance}."
      },
      "approve(address,uint256)": {
        "details": "See {IERC20-approve}. Requirements: - `spender` cannot be the zero address."
      },
      "balanceOf(address)": {
        "details": "See {IERC20-balanceOf}."
      },
      "decimals()": {
        "details": "Returns the number of decimals used to get its user representation. For example, if `decimals` equals `2`, a balance of `505` tokens should be displayed to a user as `5,05` (`505 / 10 ** 2`). Tokens usually opt for a value of 18, imitating the relationship between Ether and Wei. This is the value {ERC20} uses, unless this function is overridden; NOTE: This information is only used for _display_ purposes: it in no way affects any of the arithmetic of the contract, including {IERC20-balanceOf} and {IERC20-transfer}."
      },
      "decreaseAllowance(address,uint256)": {
        "details": "Atomically decreases the allowance granted to `spender` by the caller. This is an alternative to {approve} that can be used as a mitigation for problems described in {IERC20-approve}. Emits an {Approval} event indicating the updated allowance. Requirements: - `spender` cannot be the zero address. - `spender` must have allowance for the caller of at least `subtractedValue`."
      },
      "getRoleAdmin(bytes32)": {
        "details": "Returns the admin role that controls `role`. See {grantRole} and {revokeRole}. To change a role's admin, use {_setRoleAdmin}."
      },
      "getRoleMember(bytes32,uint256)": {
        "details": "Returns one of the accounts that have `role`. `index` must be a value between 0 and {getRoleMemberCount}, non-inclusive. Role bearers are not sorted in any particular way, and their ordering may change at any point. WARNING: When using {getRoleMember} and {getRoleMemberCount}, make sure you perform all queries on the same block. See the following https://forum.openzeppelin.com/t/iterating-over-elements-on-enumerableset-in-openzeppelin-contracts/2296[forum post] for more information."
      },
      "getRoleMemberCount(bytes32)": {
        "details": "Returns the number of accounts that have `role`. Can be used together with {getRoleMember} to enumerate all bearers of a role."
      },
      "grantRole(bytes32,address)": {
        "details": "Overload {grantRole} to track enumerable memberships"
      },
      "hasRole(bytes32,address)": {
        "details": "Returns `true` if `account` has been granted `role`."
      },
      "increaseAllowance(address,uint256)": {
        "details": "Atomically increases the allowance granted to `spender` by the caller. This is an alternative to {approve} that can be used as a mitigation for problems described in {IERC20-approve}. Emits an {Approval} event indicating the updated allowance. Requirements: - `spender` cannot be the zero address."
      },
      "mint(address,uint256)": {
        "details": "See {IMintableERC20-mint}."
      },
      "multicall(bytes[])": {
        "details": "Receives and executes a batch of function calls on this contract."
      },
      "name()": {
        "details": "Returns the name of the token."
      },
      "nonces(address)": {
        "details": "See {IERC20Permit-nonces}."
      },
      "owner()": {
        "details": "Returns the address of the current owner."
      },
      "permit(address,address,uint256,uint256,uint8,bytes32,bytes32)": {
        "details": "See {IERC20Permit-permit}."
      },
      "renounceOwnership()": {
        "details": "Leaves the contract without owner. It will not be possible to call `onlyOwner` functions anymore. Can only be called by the current owner. NOTE: Renouncing ownership will leave the contract without an owner, thereby removing any functionality that is only available to the owner."
      },
      "renounceRole(bytes32,address)": {
        "details": "Overload {renounceRole} to track enumerable memberships"
      },
      "revokeRole(bytes32,address)": {
        "details": "Overload {revokeRole} to track enumerable memberships"
      },
      "supportsInterface(bytes4)": {
        "details": "See {IERC165-supportsInterface}."
      },
      "symbol()": {
        "details": "Returns the symbol of the token, usually a shorter version of the name."
      },
      "totalSupply()": {
        "details": "See {IERC20-totalSupply}."
      },
      "transfer(address,uint256)": {
        "details": "See {IERC20-transfer}. Requirements: - `recipient` cannot be the zero address. - the caller must have a balance of at least `amount`."
      },
      "transferAnyERC20(address,address,uint256)": {
        "params": {
          "_amount": "amount of tokens to unlock",
          "_to": "the address to send the tokens to",
          "_tokenAddress": "the address of the tokens to unlock"
        }
      },
      "transferFrom(address,address,uint256)": {
        "details": "See {IERC20-transferFrom}. Emits an {Approval} event indicating the updated allowance. This is not required by the EIP. See the note at the beginning of {ERC20}. Requirements: - `sender` and `recipient` cannot be the zero address. - `sender` must have a balance of at least `amount`. - the caller must have allowance for ``sender``'s tokens of at least `amount`."
      },
      "transferOwnership(address)": {
        "details": "Transfers ownership of the contract to a new account (`newOwner`). Can only be called by the current owner."
      }
    },
    "version": 1
  },
  "userdoc": {
    "kind": "user",
    "methods": {
      "transferAnyERC20(address,address,uint256)": {
        "notice": "called when admin wants to unlock erc20 tokens owned by the contract"
      }
    },
    "version": 1
  },
  "storageLayout": {
    "storage": [
      {
        "astId": 677,
        "contract": "contracts/token/DailyCopTokenRoot.sol:DailyCopTokenRoot",
        "label": "_balances",
        "offset": 0,
        "slot": "0",
        "type": "t_mapping(t_address,t_uint256)"
      },
      {
        "astId": 683,
        "contract": "contracts/token/DailyCopTokenRoot.sol:DailyCopTokenRoot",
        "label": "_allowances",
        "offset": 0,
        "slot": "1",
        "type": "t_mapping(t_address,t_mapping(t_address,t_uint256))"
      },
      {
        "astId": 685,
        "contract": "contracts/token/DailyCopTokenRoot.sol:DailyCopTokenRoot",
        "label": "_totalSupply",
        "offset": 0,
        "slot": "2",
        "type": "t_uint256"
      },
      {
        "astId": 687,
        "contract": "contracts/token/DailyCopTokenRoot.sol:DailyCopTokenRoot",
        "label": "_name",
        "offset": 0,
        "slot": "3",
        "type": "t_string_storage"
      },
      {
        "astId": 689,
        "contract": "contracts/token/DailyCopTokenRoot.sol:DailyCopTokenRoot",
        "label": "_symbol",
        "offset": 0,
        "slot": "4",
        "type": "t_string_storage"
      },
      {
        "astId": 1333,
        "contract": "contracts/token/DailyCopTokenRoot.sol:DailyCopTokenRoot",
        "label": "_nonces",
        "offset": 0,
        "slot": "5",
        "type": "t_mapping(t_address,t_struct(Counter)1838_storage)"
      },
      {
        "astId": 62,
        "contract": "contracts/token/DailyCopTokenRoot.sol:DailyCopTokenRoot",
        "label": "_roles",
        "offset": 0,
        "slot": "6",
        "type": "t_mapping(t_bytes32,t_struct(RoleData)57_storage)"
      },
      {
        "astId": 403,
        "contract": "contracts/token/DailyCopTokenRoot.sol:DailyCopTokenRoot",
        "label": "_roleMembers",
        "offset": 0,
        "slot": "7",
        "type": "t_mapping(t_bytes32,t_struct(AddressSet)2803_storage)"
      },
      {
        "astId": 565,
        "contract": "contracts/token/DailyCopTokenRoot.sol:DailyCopTokenRoot",
        "label": "_owner",
        "offset": 0,
        "slot": "8",
        "type": "t_address"
      }
    ],
    "types": {
      "t_address": {
        "encoding": "inplace",
        "label": "address",
        "numberOfBytes": "20"
      },
      "t_array(t_bytes32)dyn_storage": {
        "base": "t_bytes32",
        "encoding": "dynamic_array",
        "label": "bytes32[]",
        "numberOfBytes": "32"
      },
      "t_bool": {
        "encoding": "inplace",
        "label": "bool",
        "numberOfBytes": "1"
      },
      "t_bytes32": {
        "encoding": "inplace",
        "label": "bytes32",
        "numberOfBytes": "32"
      },
      "t_mapping(t_address,t_bool)": {
        "encoding": "mapping",
        "key": "t_address",
        "label": "mapping(address => bool)",
        "numberOfBytes": "32",
        "value": "t_bool"
      },
      "t_mapping(t_address,t_mapping(t_address,t_uint256))": {
        "encoding": "mapping",
        "key": "t_address",
        "label": "mapping(address => mapping(address => uint256))",
        "numberOfBytes": "32",
        "value": "t_mapping(t_address,t_uint256)"
      },
      "t_mapping(t_address,t_struct(Counter)1838_storage)": {
        "encoding": "mapping",
        "key": "t_address",
        "label": "mapping(address => struct Counters.Counter)",
        "numberOfBytes": "32",
        "value": "t_struct(Counter)1838_storage"
      },
      "t_mapping(t_address,t_uint256)": {
        "encoding": "mapping",
        "key": "t_address",
        "label": "mapping(address => uint256)",
        "numberOfBytes": "32",
        "value": "t_uint256"
      },
      "t_mapping(t_bytes32,t_struct(AddressSet)2803_storage)": {
        "encoding": "mapping",
        "key": "t_bytes32",
        "label": "mapping(bytes32 => struct EnumerableSet.AddressSet)",
        "numberOfBytes": "32",
        "value": "t_struct(AddressSet)2803_storage"
      },
      "t_mapping(t_bytes32,t_struct(RoleData)57_storage)": {
        "encoding": "mapping",
        "key": "t_bytes32",
        "label": "mapping(bytes32 => struct AccessControl.RoleData)",
        "numberOfBytes": "32",
        "value": "t_struct(RoleData)57_storage"
      },
      "t_mapping(t_bytes32,t_uint256)": {
        "encoding": "mapping",
        "key": "t_bytes32",
        "label": "mapping(bytes32 => uint256)",
        "numberOfBytes": "32",
        "value": "t_uint256"
      },
      "t_string_storage": {
        "encoding": "bytes",
        "label": "string",
        "numberOfBytes": "32"
      },
      "t_struct(AddressSet)2803_storage": {
        "encoding": "inplace",
        "label": "struct EnumerableSet.AddressSet",
        "members": [
          {
            "astId": 2802,
            "contract": "contracts/token/DailyCopTokenRoot.sol:DailyCopTokenRoot",
            "label": "_inner",
            "offset": 0,
            "slot": "0",
            "type": "t_struct(Set)2532_storage"
          }
        ],
        "numberOfBytes": "64"
      },
      "t_struct(Counter)1838_storage": {
        "encoding": "inplace",
        "label": "struct Counters.Counter",
        "members": [
          {
            "astId": 1837,
            "contract": "contracts/token/DailyCopTokenRoot.sol:DailyCopTokenRoot",
            "label": "_value",
            "offset": 0,
            "slot": "0",
            "type": "t_uint256"
          }
        ],
        "numberOfBytes": "32"
      },
      "t_struct(RoleData)57_storage": {
        "encoding": "inplace",
        "label": "struct AccessControl.RoleData",
        "members": [
          {
            "astId": 54,
            "contract": "contracts/token/DailyCopTokenRoot.sol:DailyCopTokenRoot",
            "label": "members",
            "offset": 0,
            "slot": "0",
            "type": "t_mapping(t_address,t_bool)"
          },
          {
            "astId": 56,
            "contract": "contracts/token/DailyCopTokenRoot.sol:DailyCopTokenRoot",
            "label": "adminRole",
            "offset": 0,
            "slot": "1",
            "type": "t_bytes32"
          }
        ],
        "numberOfBytes": "64"
      },
      "t_struct(Set)2532_storage": {
        "encoding": "inplace",
        "label": "struct EnumerableSet.Set",
        "members": [
          {
            "astId": 2527,
            "contract": "contracts/token/DailyCopTokenRoot.sol:DailyCopTokenRoot",
            "label": "_values",
            "offset": 0,
            "slot": "0",
            "type": "t_array(t_bytes32)dyn_storage"
          },
          {
            "astId": 2531,
            "contract": "contracts/token/DailyCopTokenRoot.sol:DailyCopTokenRoot",
            "label": "_indexes",
            "offset": 0,
            "slot": "1",
            "type": "t_mapping(t_bytes32,t_uint256)"
          }
        ],
        "numberOfBytes": "64"
      },
      "t_uint256": {
        "encoding": "inplace",
        "label": "uint256",
        "numberOfBytes": "32"
      }
    }
  }
}