{
  "address": "0x2d296AFa671BAFCD4280ed9B58cfe9637643a61B",
  "abi": [
    {
      "anonymous": false,
      "inputs": [
        {
          "indexed": true,
          "internalType": "bytes32",
          "name": "role",
          "type": "bytes32"
        },
        {
          "indexed": true,
          "internalType": "bytes32",
          "name": "previousAdminRole",
          "type": "bytes32"
        },
        {
          "indexed": true,
          "internalType": "bytes32",
          "name": "newAdminRole",
          "type": "bytes32"
        }
      ],
      "name": "RoleAdminChanged",
      "type": "event"
    },
    {
      "anonymous": false,
      "inputs": [
        {
          "indexed": true,
          "internalType": "bytes32",
          "name": "role",
          "type": "bytes32"
        },
        {
          "indexed": true,
          "internalType": "address",
          "name": "account",
          "type": "address"
        },
        {
          "indexed": true,
          "internalType": "address",
          "name": "sender",
          "type": "address"
        }
      ],
      "name": "RoleGranted",
      "type": "event"
    },
    {
      "anonymous": false,
      "inputs": [
        {
          "indexed": true,
          "internalType": "bytes32",
          "name": "role",
          "type": "bytes32"
        },
        {
          "indexed": true,
          "internalType": "address",
          "name": "account",
          "type": "address"
        },
        {
          "indexed": true,
          "internalType": "address",
          "name": "sender",
          "type": "address"
        }
      ],
      "name": "RoleRevoked",
      "type": "event"
    },
    {
      "inputs": [],
      "name": "DEFAULT_ADMIN_ROLE",
      "outputs": [
        {
          "internalType": "bytes32",
          "name": "",
          "type": "bytes32"
        }
      ],
      "stateMutability": "view",
      "type": "function"
    },
    {
      "inputs": [],
      "name": "FIXED_COST_100",
      "outputs": [
        {
          "internalType": "uint256",
          "name": "",
          "type": "uint256"
        }
      ],
      "stateMutability": "view",
      "type": "function"
    },
    {
      "inputs": [],
      "name": "RELAYER_ROLE",
      "outputs": [
        {
          "internalType": "bytes32",
          "name": "",
          "type": "bytes32"
        }
      ],
      "stateMutability": "view",
      "type": "function"
    },
    {
      "inputs": [],
      "name": "daily",
      "outputs": [
        {
          "internalType": "contract IDailyToken",
          "name": "",
          "type": "address"
        }
      ],
      "stateMutability": "view",
      "type": "function"
    },
    {
      "inputs": [],
      "name": "getCost",
      "outputs": [
        {
          "internalType": "uint256",
          "name": "",
          "type": "uint256"
        }
      ],
      "stateMutability": "pure",
      "type": "function"
    },
    {
      "inputs": [
        {
          "internalType": "bytes32",
          "name": "role",
          "type": "bytes32"
        }
      ],
      "name": "getRoleAdmin",
      "outputs": [
        {
          "internalType": "bytes32",
          "name": "",
          "type": "bytes32"
        }
      ],
      "stateMutability": "view",
      "type": "function"
    },
    {
      "inputs": [
        {
          "internalType": "bytes32",
          "name": "role",
          "type": "bytes32"
        },
        {
          "internalType": "uint256",
          "name": "index",
          "type": "uint256"
        }
      ],
      "name": "getRoleMember",
      "outputs": [
        {
          "internalType": "address",
          "name": "",
          "type": "address"
        }
      ],
      "stateMutability": "view",
      "type": "function"
    },
    {
      "inputs": [
        {
          "internalType": "bytes32",
          "name": "role",
          "type": "bytes32"
        }
      ],
      "name": "getRoleMemberCount",
      "outputs": [
        {
          "internalType": "uint256",
          "name": "",
          "type": "uint256"
        }
      ],
      "stateMutability": "view",
      "type": "function"
    },
    {
      "inputs": [
        {
          "internalType": "bytes32",
          "name": "role",
          "type": "bytes32"
        },
        {
          "internalType": "address",
          "name": "account",
          "type": "address"
        }
      ],
      "name": "grantRole",
      "outputs": [],
      "stateMutability": "nonpayable",
      "type": "function"
    },
    {
      "inputs": [
        {
          "internalType": "bytes32",
          "name": "role",
          "type": "bytes32"
        },
        {
          "internalType": "address",
          "name": "account",
          "type": "address"
        }
      ],
      "name": "hasRole",
      "outputs": [
        {
          "internalType": "bool",
          "name": "",
          "type": "bool"
        }
      ],
      "stateMutability": "view",
      "type": "function"
    },
    {
      "inputs": [
        {
          "internalType": "address",
          "name": "_defaultAdmin",
          "type": "address"
        },
        {
          "internalType": "address",
          "name": "_firstRelayer",
          "type": "address"
        },
        {
          "internalType": "contract IDailyToken",
          "name": "_daily",
          "type": "address"
        }
      ],
      "name": "initialize",
      "outputs": [],
      "stateMutability": "nonpayable",
      "type": "function"
    },
    {
      "inputs": [
        {
          "internalType": "bytes32",
          "name": "role",
          "type": "bytes32"
        },
        {
          "internalType": "address",
          "name": "account",
          "type": "address"
        }
      ],
      "name": "renounceRole",
      "outputs": [],
      "stateMutability": "nonpayable",
      "type": "function"
    },
    {
      "inputs": [
        {
          "internalType": "bytes32",
          "name": "role",
          "type": "bytes32"
        },
        {
          "internalType": "address",
          "name": "account",
          "type": "address"
        }
      ],
      "name": "revokeRole",
      "outputs": [],
      "stateMutability": "nonpayable",
      "type": "function"
    },
    {
      "inputs": [
        {
          "internalType": "bytes4",
          "name": "interfaceId",
          "type": "bytes4"
        }
      ],
      "name": "supportsInterface",
      "outputs": [
        {
          "internalType": "bool",
          "name": "",
          "type": "bool"
        }
      ],
      "stateMutability": "view",
      "type": "function"
    },
    {
      "inputs": [
        {
          "internalType": "address",
          "name": "owner",
          "type": "address"
        },
        {
          "internalType": "address",
          "name": "recipient",
          "type": "address"
        },
        {
          "internalType": "uint256",
          "name": "value",
          "type": "uint256"
        },
        {
          "internalType": "uint256",
          "name": "deadline",
          "type": "uint256"
        },
        {
          "internalType": "uint8",
          "name": "v",
          "type": "uint8"
        },
        {
          "internalType": "bytes32",
          "name": "r",
          "type": "bytes32"
        },
        {
          "internalType": "bytes32",
          "name": "s",
          "type": "bytes32"
        }
      ],
      "name": "transferWithPermit",
      "outputs": [],
      "stateMutability": "nonpayable",
      "type": "function"
    }
  ],
  "transactionHash": "0xd9fbc1dd258857e98cc20546b837001341b4d834451835e4e8daf531b362a5a1",
  "args": [],
  "solcInputHash": "42480a776e3d16c6a1c4024610eec753",
  "bytecode": "0x608060405234801561001057600080fd5b506122e4806100206000396000f3fe608060405234801561001057600080fd5b50600436106100f55760003560e01c80639010d07c11610097578063bd3e19d411610066578063bd3e19d414610286578063c0c53b8b146102a4578063ca15c873146102c0578063d547741f146102f0576100f5565b80639010d07c146101ea57806391d148541461021a578063926d7d7f1461024a578063a217fddf14610268576100f5565b80632f2ff15d116100d35780632f2ff15d1461017857806336568abe146101945780634528c699146101b0578063605629d6146101ce576100f5565b806301ffc9a7146100fa5780631fcd401e1461012a578063248a9ca314610148575b600080fd5b610114600480360381019061010f9190611a74565b61030c565b6040516101219190611d2e565b60405180910390f35b610132610386565b60405161013f9190611e21565b60405180910390f35b610162600480360381019061015d91906119d3565b610393565b60405161016f9190611d49565b60405180910390f35b610192600480360381019061018d91906119fc565b6103b3565b005b6101ae60048036038101906101a991906119fc565b6103e7565b005b6101b861041b565b6040516101c59190611d64565b60405180910390f35b6101e860048036038101906101e3919061190c565b610441565b005b61020460048036038101906101ff9190611a38565b6106dc565b6040516102119190611c6d565b60405180910390f35b610234600480360381019061022f91906119fc565b61070b565b6040516102419190611d2e565b60405180910390f35b610252610776565b60405161025f9190611d49565b60405180910390f35b61027061079a565b60405161027d9190611d49565b60405180910390f35b61028e6107a1565b60405161029b9190611e21565b60405180910390f35b6102be60048036038101906102b991906118bd565b6107b2565b005b6102da60048036038101906102d591906119d3565b61090e565b6040516102e79190611e21565b60405180910390f35b61030a600480360381019061030591906119fc565b610932565b005b60007f5a05180f000000000000000000000000000000000000000000000000000000007bffffffffffffffffffffffffffffffffffffffffffffffffffffffff1916827bffffffffffffffffffffffffffffffffffffffffffffffffffffffff1916148061037f575061037e82610966565b5b9050919050565b68056bc75e2d6310000081565b600060656000838152602001908152602001600020600101549050919050565b6103bd82826109e0565b6103e28160976000858152602001908152602001600020610a0990919063ffffffff16565b505050565b6103f18282610a39565b6104168160976000858152602001908152602001600020610abc90919063ffffffff16565b505050565b60c960009054906101000a900473ffffffffffffffffffffffffffffffffffffffff1681565b7fe2b7fb3b832174769106daebcfd6d1970523240dda11281102db9363b83b0dc46104738161046e610aec565b610af4565b8561047c6107a1565b106104bc576040517f08c379a00000000000000000000000000000000000000000000000000000000081526004016104b390611de1565b60405180910390fd5b60c960009054906101000a900473ffffffffffffffffffffffffffffffffffffffff1673ffffffffffffffffffffffffffffffffffffffff1663d505accf893089898989896040518863ffffffff1660e01b81526004016105239796959493929190611cbf565b600060405180830381600087803b15801561053d57600080fd5b505af1158015610551573d6000803e3d6000fd5b5050505060c960009054906101000a900473ffffffffffffffffffffffffffffffffffffffff1673ffffffffffffffffffffffffffffffffffffffff166323b872dd898961059d6107a1565b8a6105a89190611f13565b6040518463ffffffff1660e01b81526004016105c693929190611c88565b602060405180830381600087803b1580156105e057600080fd5b505af11580156105f4573d6000803e3d6000fd5b505050506040513d601f19601f8201168201806040525081019061061891906119aa565b5060c960009054906101000a900473ffffffffffffffffffffffffffffffffffffffff1673ffffffffffffffffffffffffffffffffffffffff166323b872dd89336106616107a1565b6040518463ffffffff1660e01b815260040161067f93929190611c88565b602060405180830381600087803b15801561069957600080fd5b505af11580156106ad573d6000803e3d6000fd5b505050506040513d601f19601f820116820180604052508101906106d191906119aa565b505050505050505050565b60006107038260976000868152602001908152602001600020610b9190919063ffffffff16565b905092915050565b60006065600084815260200190815260200160002060000160008373ffffffffffffffffffffffffffffffffffffffff1673ffffffffffffffffffffffffffffffffffffffff16815260200190815260200160002060009054906101000a900460ff16905092915050565b7fe2b7fb3b832174769106daebcfd6d1970523240dda11281102db9363b83b0dc481565b6000801b81565b600068056bc75e2d63100000905090565b600060019054906101000a900460ff16806107d8575060008054906101000a900460ff16155b610817576040517f08c379a000000000000000000000000000000000000000000000000000000000815260040161080e90611dc1565b60405180910390fd5b60008060019054906101000a900460ff161590508015610867576001600060016101000a81548160ff02191690831515021790555060016000806101000a81548160ff0219169083151502179055505b61086f610bab565b61087c6000801b85610ca4565b6108a67fe2b7fb3b832174769106daebcfd6d1970523240dda11281102db9363b83b0dc484610ca4565b8160c960006101000a81548173ffffffffffffffffffffffffffffffffffffffff021916908373ffffffffffffffffffffffffffffffffffffffff16021790555080156109085760008060016101000a81548160ff0219169083151502179055505b50505050565b600061092b60976000848152602001908152602001600020610cd8565b9050919050565b61093c8282610ced565b6109618160976000858152602001908152602001600020610abc90919063ffffffff16565b505050565b60007f7965db0b000000000000000000000000000000000000000000000000000000007bffffffffffffffffffffffffffffffffffffffffffffffffffffffff1916827bffffffffffffffffffffffffffffffffffffffffffffffffffffffff191614806109d957506109d882610d16565b5b9050919050565b6109e982610393565b6109fa816109f5610aec565b610af4565b610a048383610d80565b505050565b6000610a31836000018373ffffffffffffffffffffffffffffffffffffffff1660001b610e61565b905092915050565b610a41610aec565b73ffffffffffffffffffffffffffffffffffffffff168173ffffffffffffffffffffffffffffffffffffffff1614610aae576040517f08c379a0000000000000000000000000000000000000000000000000000000008152600401610aa590611e01565b60405180910390fd5b610ab88282610ed1565b5050565b6000610ae4836000018373ffffffffffffffffffffffffffffffffffffffff1660001b610fb3565b905092915050565b600033905090565b610afe828261070b565b610b8d57610b238173ffffffffffffffffffffffffffffffffffffffff166014611139565b610b318360001c6020611139565b604051602001610b42929190611c33565b6040516020818303038152906040526040517f08c379a0000000000000000000000000000000000000000000000000000000008152600401610b849190611d7f565b60405180910390fd5b5050565b6000610ba08360000183611433565b60001c905092915050565b600060019054906101000a900460ff1680610bd1575060008054906101000a900460ff16155b610c10576040517f08c379a0000000000000000000000000000000000000000000000000000000008152600401610c0790611dc1565b60405180910390fd5b60008060019054906101000a900460ff161590508015610c60576001600060016101000a81548160ff02191690831515021790555060016000806101000a81548160ff0219169083151502179055505b610c68611484565b610c7061155d565b610c78611636565b610c8061170f565b8015610ca15760008060016101000a81548160ff0219169083151502179055505b50565b610cae82826117e8565b610cd38160976000858152602001908152602001600020610a0990919063ffffffff16565b505050565b6000610ce6826000016117f6565b9050919050565b610cf682610393565b610d0781610d02610aec565b610af4565b610d118383610ed1565b505050565b60007f01ffc9a7000000000000000000000000000000000000000000000000000000007bffffffffffffffffffffffffffffffffffffffffffffffffffffffff1916827bffffffffffffffffffffffffffffffffffffffffffffffffffffffff1916149050919050565b610d8a828261070b565b610e5d5760016065600084815260200190815260200160002060000160008373ffffffffffffffffffffffffffffffffffffffff1673ffffffffffffffffffffffffffffffffffffffff16815260200190815260200160002060006101000a81548160ff021916908315150217905550610e02610aec565b73ffffffffffffffffffffffffffffffffffffffff168173ffffffffffffffffffffffffffffffffffffffff16837f2f8788117e7eff1d82e926ec794901d17c78024a50270940304540a733656f0d60405160405180910390a45b5050565b6000610e6d8383611807565b610ec6578260000182908060018154018082558091505060019003906000526020600020016000909190919091505582600001805490508360010160008481526020019081526020016000208190555060019050610ecb565b600090505b92915050565b610edb828261070b565b15610faf5760006065600084815260200190815260200160002060000160008373ffffffffffffffffffffffffffffffffffffffff1673ffffffffffffffffffffffffffffffffffffffff16815260200190815260200160002060006101000a81548160ff021916908315150217905550610f54610aec565b73ffffffffffffffffffffffffffffffffffffffff168173ffffffffffffffffffffffffffffffffffffffff16837ff6391f5c32d9c69d2a47ea670b442974b53935d1edc7fd64eb21e047a839171b60405160405180910390a45b5050565b6000808360010160008481526020019081526020016000205490506000811461112d576000600182610fe59190611f13565b9050600060018660000180549050610ffd9190611f13565b90508181146110b8576000866000018281548110611044577f4e487b7100000000000000000000000000000000000000000000000000000000600052603260045260246000fd5b906000526020600020015490508087600001848154811061108e577f4e487b7100000000000000000000000000000000000000000000000000000000600052603260045260246000fd5b90600052602060002001819055508387600101600083815260200190815260200160002081905550505b856000018054806110f2577f4e487b7100000000000000000000000000000000000000000000000000000000600052603160045260246000fd5b600190038181906000526020600020016000905590558560010160008681526020019081526020016000206000905560019350505050611133565b60009150505b92915050565b60606000600283600261114c9190611eb9565b6111569190611e63565b67ffffffffffffffff811115611195577f4e487b7100000000000000000000000000000000000000000000000000000000600052604160045260246000fd5b6040519080825280601f01601f1916602001820160405280156111c75781602001600182028036833780820191505090505b5090507f300000000000000000000000000000000000000000000000000000000000000081600081518110611225577f4e487b7100000000000000000000000000000000000000000000000000000000600052603260045260246000fd5b60200101907effffffffffffffffffffffffffffffffffffffffffffffffffffffffffffff1916908160001a9053507f7800000000000000000000000000000000000000000000000000000000000000816001815181106112af577f4e487b7100000000000000000000000000000000000000000000000000000000600052603260045260246000fd5b60200101907effffffffffffffffffffffffffffffffffffffffffffffffffffffffffffff1916908160001a905350600060018460026112ef9190611eb9565b6112f99190611e63565b90505b60018111156113e5577f3031323334353637383961626364656600000000000000000000000000000000600f861660108110611361577f4e487b7100000000000000000000000000000000000000000000000000000000600052603260045260246000fd5b1a60f81b82828151811061139e577f4e487b7100000000000000000000000000000000000000000000000000000000600052603260045260246000fd5b60200101907effffffffffffffffffffffffffffffffffffffffffffffffffffffffffffff1916908160001a905350600485901c9450806113de9061203b565b90506112fc565b5060008414611429576040517f08c379a000000000000000000000000000000000000000000000000000000000815260040161142090611da1565b60405180910390fd5b8091505092915050565b6000826000018281548110611471577f4e487b7100000000000000000000000000000000000000000000000000000000600052603260045260246000fd5b9060005260206000200154905092915050565b600060019054906101000a900460ff16806114aa575060008054906101000a900460ff16155b6114e9576040517f08c379a00000000000000000000000000000000000000000000000000000000081526004016114e090611dc1565b60405180910390fd5b60008060019054906101000a900460ff161590508015611539576001600060016101000a81548160ff02191690831515021790555060016000806101000a81548160ff0219169083151502179055505b801561155a5760008060016101000a81548160ff0219169083151502179055505b50565b600060019054906101000a900460ff1680611583575060008054906101000a900460ff16155b6115c2576040517f08c379a00000000000000000000000000000000000000000000000000000000081526004016115b990611dc1565b60405180910390fd5b60008060019054906101000a900460ff161590508015611612576001600060016101000a81548160ff02191690831515021790555060016000806101000a81548160ff0219169083151502179055505b80156116335760008060016101000a81548160ff0219169083151502179055505b50565b600060019054906101000a900460ff168061165c575060008054906101000a900460ff16155b61169b576040517f08c379a000000000000000000000000000000000000000000000000000000000815260040161169290611dc1565b60405180910390fd5b60008060019054906101000a900460ff1615905080156116eb576001600060016101000a81548160ff02191690831515021790555060016000806101000a81548160ff0219169083151502179055505b801561170c5760008060016101000a81548160ff0219169083151502179055505b50565b600060019054906101000a900460ff1680611735575060008054906101000a900460ff16155b611774576040517f08c379a000000000000000000000000000000000000000000000000000000000815260040161176b90611dc1565b60405180910390fd5b60008060019054906101000a900460ff1615905080156117c4576001600060016101000a81548160ff02191690831515021790555060016000806101000a81548160ff0219169083151502179055505b80156117e55760008060016101000a81548160ff0219169083151502179055505b50565b6117f28282610d80565b5050565b600081600001805490509050919050565b600080836001016000848152602001908152602001600020541415905092915050565b6000813590506118398161220d565b92915050565b60008151905061184e81612224565b92915050565b6000813590506118638161223b565b92915050565b60008135905061187881612252565b92915050565b60008135905061188d81612269565b92915050565b6000813590506118a281612280565b92915050565b6000813590506118b781612297565b92915050565b6000806000606084860312156118d257600080fd5b60006118e08682870161182a565b93505060206118f18682870161182a565b92505060406119028682870161187e565b9150509250925092565b600080600080600080600060e0888a03121561192757600080fd5b60006119358a828b0161182a565b97505060206119468a828b0161182a565b96505060406119578a828b01611893565b95505060606119688a828b01611893565b94505060806119798a828b016118a8565b93505060a061198a8a828b01611854565b92505060c061199b8a828b01611854565b91505092959891949750929550565b6000602082840312156119bc57600080fd5b60006119ca8482850161183f565b91505092915050565b6000602082840312156119e557600080fd5b60006119f384828501611854565b91505092915050565b60008060408385031215611a0f57600080fd5b6000611a1d85828601611854565b9250506020611a2e8582860161182a565b9150509250929050565b60008060408385031215611a4b57600080fd5b6000611a5985828601611854565b9250506020611a6a85828601611893565b9150509250929050565b600060208284031215611a8657600080fd5b6000611a9484828501611869565b91505092915050565b611aa681611f47565b82525050565b611ab581611f59565b82525050565b611ac481611f65565b82525050565b611ad381611fe4565b82525050565b6000611ae482611e3c565b611aee8185611e47565b9350611afe818560208601612008565b611b0781612094565b840191505092915050565b6000611b1d82611e3c565b611b278185611e58565b9350611b37818560208601612008565b80840191505092915050565b6000611b50602083611e47565b9150611b5b826120a5565b602082019050919050565b6000611b73602e83611e47565b9150611b7e826120ce565b604082019050919050565b6000611b96601783611e58565b9150611ba18261211d565b601782019050919050565b6000611bb9603883611e47565b9150611bc482612146565b604082019050919050565b6000611bdc601183611e58565b9150611be782612195565b601182019050919050565b6000611bff602f83611e47565b9150611c0a826121be565b604082019050919050565b611c1e81611fcd565b82525050565b611c2d81611fd7565b82525050565b6000611c3e82611b89565b9150611c4a8285611b12565b9150611c5582611bcf565b9150611c618284611b12565b91508190509392505050565b6000602082019050611c826000830184611a9d565b92915050565b6000606082019050611c9d6000830186611a9d565b611caa6020830185611a9d565b611cb76040830184611c15565b949350505050565b600060e082019050611cd4600083018a611a9d565b611ce16020830189611a9d565b611cee6040830188611c15565b611cfb6060830187611c15565b611d086080830186611c24565b611d1560a0830185611abb565b611d2260c0830184611abb565b98975050505050505050565b6000602082019050611d436000830184611aac565b92915050565b6000602082019050611d5e6000830184611abb565b92915050565b6000602082019050611d796000830184611aca565b92915050565b60006020820190508181036000830152611d998184611ad9565b905092915050565b60006020820190508181036000830152611dba81611b43565b9050919050565b60006020820190508181036000830152611dda81611b66565b9050919050565b60006020820190508181036000830152611dfa81611bac565b9050919050565b60006020820190508181036000830152611e1a81611bf2565b9050919050565b6000602082019050611e366000830184611c15565b92915050565b600081519050919050565b600082825260208201905092915050565b600081905092915050565b6000611e6e82611fcd565b9150611e7983611fcd565b9250827fffffffffffffffffffffffffffffffffffffffffffffffffffffffffffffffff03821115611eae57611ead612065565b5b828201905092915050565b6000611ec482611fcd565b9150611ecf83611fcd565b9250817fffffffffffffffffffffffffffffffffffffffffffffffffffffffffffffffff0483118215151615611f0857611f07612065565b5b828202905092915050565b6000611f1e82611fcd565b9150611f2983611fcd565b925082821015611f3c57611f3b612065565b5b828203905092915050565b6000611f5282611fad565b9050919050565b60008115159050919050565b6000819050919050565b60007fffffffff0000000000000000000000000000000000000000000000000000000082169050919050565b6000611fa682611f47565b9050919050565b600073ffffffffffffffffffffffffffffffffffffffff82169050919050565b6000819050919050565b600060ff82169050919050565b6000611fef82611ff6565b9050919050565b600061200182611fad565b9050919050565b60005b8381101561202657808201518184015260208101905061200b565b83811115612035576000848401525b50505050565b600061204682611fcd565b9150600082141561205a57612059612065565b5b600182039050919050565b7f4e487b7100000000000000000000000000000000000000000000000000000000600052601160045260246000fd5b6000601f19601f8301169050919050565b7f537472696e67733a20686578206c656e67746820696e73756666696369656e74600082015250565b7f496e697469616c697a61626c653a20636f6e747261637420697320616c72656160008201527f647920696e697469616c697a6564000000000000000000000000000000000000602082015250565b7f416363657373436f6e74726f6c3a206163636f756e7420000000000000000000600082015250565b7f5468652076616c7565206973206e6f7420656e6f75676820746f20636f76657260008201527f2074686520636f737420616e642061207472616e736665720000000000000000602082015250565b7f206973206d697373696e6720726f6c6520000000000000000000000000000000600082015250565b7f416363657373436f6e74726f6c3a2063616e206f6e6c792072656e6f756e636560008201527f20726f6c657320666f722073656c660000000000000000000000000000000000602082015250565b61221681611f47565b811461222157600080fd5b50565b61222d81611f59565b811461223857600080fd5b50565b61224481611f65565b811461224f57600080fd5b50565b61225b81611f6f565b811461226657600080fd5b50565b61227281611f9b565b811461227d57600080fd5b50565b61228981611fcd565b811461229457600080fd5b50565b6122a081611fd7565b81146122ab57600080fd5b5056fea26469706673582212204d375c51382960420f5acc965f612d0e0262e5b8bebf0dc09bcef29aff81d5c164736f6c63430008040033",
  "devdoc": {
    "kind": "dev",
    "methods": {
      "getRoleAdmin(bytes32)": {
        "details": "Returns the admin role that controls `role`. See {grantRole} and {revokeRole}. To change a role's admin, use {_setRoleAdmin}."
      },
      "getRoleMember(bytes32,uint256)": {
        "details": "Returns one of the accounts that have `role`. `index` must be a value between 0 and {getRoleMemberCount}, non-inclusive. Role bearers are not sorted in any particular way, and their ordering may change at any point. WARNING: When using {getRoleMember} and {getRoleMemberCount}, make sure you perform all queries on the same block. See the following https://forum.openzeppelin.com/t/iterating-over-elements-on-enumerableset-in-openzeppelin-contracts/2296[forum post] for more information."
      },
      "getRoleMemberCount(bytes32)": {
        "details": "Returns the number of accounts that have `role`. Can be used together with {getRoleMember} to enumerate all bearers of a role."
      },
      "grantRole(bytes32,address)": {
        "details": "Overload {grantRole} to track enumerable memberships"
      },
      "hasRole(bytes32,address)": {
        "details": "Returns `true` if `account` has been granted `role`."
      },
      "renounceRole(bytes32,address)": {
        "details": "Overload {renounceRole} to track enumerable memberships"
      },
      "revokeRole(bytes32,address)": {
        "details": "Overload {revokeRole} to track enumerable memberships"
      },
      "supportsInterface(bytes4)": {
        "details": "See {IERC165-supportsInterface}."
      },
      "transferWithPermit(address,address,uint256,uint256,uint8,bytes32,bytes32)": {
        "details": "permit signature will only allow the exact amount to the msg.sender"
      }
    },
    "version": 1
  },
  "userdoc": {
    "kind": "user",
    "methods": {
      "getCost()": {
        "notice": "getCost returns the fee that is currently charged by the relayer"
      },
      "transferWithPermit(address,address,uint256,uint256,uint8,bytes32,bytes32)": {
        "notice": "transfer tokens to recipient using permit signature"
      }
    },
    "version": 1
  },
  "storageLayout": {
    "storage": [
      {
        "astId": 622,
        "contract": "contracts/relayer/Relayer.sol:Relayer",
        "label": "_initialized",
        "offset": 0,
        "slot": "0",
        "type": "t_bool"
      },
      {
        "astId": 625,
        "contract": "contracts/relayer/Relayer.sol:Relayer",
        "label": "_initializing",
        "offset": 1,
        "slot": "0",
        "type": "t_bool"
      },
      {
        "astId": 704,
        "contract": "contracts/relayer/Relayer.sol:Relayer",
        "label": "__gap",
        "offset": 0,
        "slot": "1",
        "type": "t_array(t_uint256)50_storage"
      },
      {
        "astId": 953,
        "contract": "contracts/relayer/Relayer.sol:Relayer",
        "label": "__gap",
        "offset": 0,
        "slot": "51",
        "type": "t_array(t_uint256)50_storage"
      },
      {
        "astId": 307,
        "contract": "contracts/relayer/Relayer.sol:Relayer",
        "label": "_roles",
        "offset": 0,
        "slot": "101",
        "type": "t_mapping(t_bytes32,t_struct(RoleData)302_storage)"
      },
      {
        "astId": 615,
        "contract": "contracts/relayer/Relayer.sol:Relayer",
        "label": "__gap",
        "offset": 0,
        "slot": "102",
        "type": "t_array(t_uint256)49_storage"
      },
      {
        "astId": 62,
        "contract": "contracts/relayer/Relayer.sol:Relayer",
        "label": "_roleMembers",
        "offset": 0,
        "slot": "151",
        "type": "t_mapping(t_bytes32,t_struct(AddressSet)1248_storage)"
      },
      {
        "astId": 219,
        "contract": "contracts/relayer/Relayer.sol:Relayer",
        "label": "__gap",
        "offset": 0,
        "slot": "152",
        "type": "t_array(t_uint256)49_storage"
      },
      {
        "astId": 1612,
        "contract": "contracts/relayer/Relayer.sol:Relayer",
        "label": "daily",
        "offset": 0,
        "slot": "201",
        "type": "t_contract(IDailyToken)1603"
      }
    ],
    "types": {
      "t_address": {
        "encoding": "inplace",
        "label": "address",
        "numberOfBytes": "20"
      },
      "t_array(t_bytes32)dyn_storage": {
        "base": "t_bytes32",
        "encoding": "dynamic_array",
        "label": "bytes32[]",
        "numberOfBytes": "32"
      },
      "t_array(t_uint256)49_storage": {
        "base": "t_uint256",
        "encoding": "inplace",
        "label": "uint256[49]",
        "numberOfBytes": "1568"
      },
      "t_array(t_uint256)50_storage": {
        "base": "t_uint256",
        "encoding": "inplace",
        "label": "uint256[50]",
        "numberOfBytes": "1600"
      },
      "t_bool": {
        "encoding": "inplace",
        "label": "bool",
        "numberOfBytes": "1"
      },
      "t_bytes32": {
        "encoding": "inplace",
        "label": "bytes32",
        "numberOfBytes": "32"
      },
      "t_contract(IDailyToken)1603": {
        "encoding": "inplace",
        "label": "contract IDailyToken",
        "numberOfBytes": "20"
      },
      "t_mapping(t_address,t_bool)": {
        "encoding": "mapping",
        "key": "t_address",
        "label": "mapping(address => bool)",
        "numberOfBytes": "32",
        "value": "t_bool"
      },
      "t_mapping(t_bytes32,t_struct(AddressSet)1248_storage)": {
        "encoding": "mapping",
        "key": "t_bytes32",
        "label": "mapping(bytes32 => struct EnumerableSetUpgradeable.AddressSet)",
        "numberOfBytes": "32",
        "value": "t_struct(AddressSet)1248_storage"
      },
      "t_mapping(t_bytes32,t_struct(RoleData)302_storage)": {
        "encoding": "mapping",
        "key": "t_bytes32",
        "label": "mapping(bytes32 => struct AccessControlUpgradeable.RoleData)",
        "numberOfBytes": "32",
        "value": "t_struct(RoleData)302_storage"
      },
      "t_mapping(t_bytes32,t_uint256)": {
        "encoding": "mapping",
        "key": "t_bytes32",
        "label": "mapping(bytes32 => uint256)",
        "numberOfBytes": "32",
        "value": "t_uint256"
      },
      "t_struct(AddressSet)1248_storage": {
        "encoding": "inplace",
        "label": "struct EnumerableSetUpgradeable.AddressSet",
        "members": [
          {
            "astId": 1247,
            "contract": "contracts/relayer/Relayer.sol:Relayer",
            "label": "_inner",
            "offset": 0,
            "slot": "0",
            "type": "t_struct(Set)977_storage"
          }
        ],
        "numberOfBytes": "64"
      },
      "t_struct(RoleData)302_storage": {
        "encoding": "inplace",
        "label": "struct AccessControlUpgradeable.RoleData",
        "members": [
          {
            "astId": 299,
            "contract": "contracts/relayer/Relayer.sol:Relayer",
            "label": "members",
            "offset": 0,
            "slot": "0",
            "type": "t_mapping(t_address,t_bool)"
          },
          {
            "astId": 301,
            "contract": "contracts/relayer/Relayer.sol:Relayer",
            "label": "adminRole",
            "offset": 0,
            "slot": "1",
            "type": "t_bytes32"
          }
        ],
        "numberOfBytes": "64"
      },
      "t_struct(Set)977_storage": {
        "encoding": "inplace",
        "label": "struct EnumerableSetUpgradeable.Set",
        "members": [
          {
            "astId": 972,
            "contract": "contracts/relayer/Relayer.sol:Relayer",
            "label": "_values",
            "offset": 0,
            "slot": "0",
            "type": "t_array(t_bytes32)dyn_storage"
          },
          {
            "astId": 976,
            "contract": "contracts/relayer/Relayer.sol:Relayer",
            "label": "_indexes",
            "offset": 0,
            "slot": "1",
            "type": "t_mapping(t_bytes32,t_uint256)"
          }
        ],
        "numberOfBytes": "64"
      },
      "t_uint256": {
        "encoding": "inplace",
        "label": "uint256",
        "numberOfBytes": "32"
      }
    }
  }
}