{
  "address": "0x78761149BaE210B0C3170c33800b13730ED89d96",
  "abi": [
    {
      "inputs": [
        {
          "internalType": "address",
          "name": "defaultAdmin",
          "type": "address"
        },
        {
          "internalType": "address",
          "name": "childChainManager",
          "type": "address"
        }
      ],
      "stateMutability": "nonpayable",
      "type": "constructor"
    },
    {
      "anonymous": false,
      "inputs": [
        {
          "indexed": true,
          "internalType": "address",
          "name": "owner",
          "type": "address"
        },
        {
          "indexed": true,
          "internalType": "address",
          "name": "spender",
          "type": "address"
        },
        {
          "indexed": false,
          "internalType": "uint256",
          "name": "value",
          "type": "uint256"
        }
      ],
      "name": "Approval",
      "type": "event"
    },
    {
      "anonymous": false,
      "inputs": [
        {
          "indexed": false,
          "internalType": "address",
          "name": "account",
          "type": "address"
        }
      ],
      "name": "Paused",
      "type": "event"
    },
    {
      "anonymous": false,
      "inputs": [
        {
          "indexed": true,
          "internalType": "bytes32",
          "name": "role",
          "type": "bytes32"
        },
        {
          "indexed": true,
          "internalType": "bytes32",
          "name": "previousAdminRole",
          "type": "bytes32"
        },
        {
          "indexed": true,
          "internalType": "bytes32",
          "name": "newAdminRole",
          "type": "bytes32"
        }
      ],
      "name": "RoleAdminChanged",
      "type": "event"
    },
    {
      "anonymous": false,
      "inputs": [
        {
          "indexed": true,
          "internalType": "bytes32",
          "name": "role",
          "type": "bytes32"
        },
        {
          "indexed": true,
          "internalType": "address",
          "name": "account",
          "type": "address"
        },
        {
          "indexed": true,
          "internalType": "address",
          "name": "sender",
          "type": "address"
        }
      ],
      "name": "RoleGranted",
      "type": "event"
    },
    {
      "anonymous": false,
      "inputs": [
        {
          "indexed": true,
          "internalType": "bytes32",
          "name": "role",
          "type": "bytes32"
        },
        {
          "indexed": true,
          "internalType": "address",
          "name": "account",
          "type": "address"
        },
        {
          "indexed": true,
          "internalType": "address",
          "name": "sender",
          "type": "address"
        }
      ],
      "name": "RoleRevoked",
      "type": "event"
    },
    {
      "anonymous": false,
      "inputs": [
        {
          "indexed": true,
          "internalType": "address",
          "name": "from",
          "type": "address"
        },
        {
          "indexed": true,
          "internalType": "address",
          "name": "to",
          "type": "address"
        },
        {
          "indexed": false,
          "internalType": "uint256",
          "name": "value",
          "type": "uint256"
        }
      ],
      "name": "Transfer",
      "type": "event"
    },
    {
      "anonymous": false,
      "inputs": [
        {
          "indexed": false,
          "internalType": "address",
          "name": "account",
          "type": "address"
        }
      ],
      "name": "Unpaused",
      "type": "event"
    },
    {
      "inputs": [],
      "name": "DEFAULT_ADMIN_ROLE",
      "outputs": [
        {
          "internalType": "bytes32",
          "name": "",
          "type": "bytes32"
        }
      ],
      "stateMutability": "view",
      "type": "function"
    },
    {
      "inputs": [],
      "name": "DEPOSITOR_ROLE",
      "outputs": [
        {
          "internalType": "bytes32",
          "name": "",
          "type": "bytes32"
        }
      ],
      "stateMutability": "view",
      "type": "function"
    },
    {
      "inputs": [],
      "name": "DOMAIN_SEPARATOR",
      "outputs": [
        {
          "internalType": "bytes32",
          "name": "",
          "type": "bytes32"
        }
      ],
      "stateMutability": "view",
      "type": "function"
    },
    {
      "inputs": [],
      "name": "MINTER_ROLE",
      "outputs": [
        {
          "internalType": "bytes32",
          "name": "",
          "type": "bytes32"
        }
      ],
      "stateMutability": "view",
      "type": "function"
    },
    {
      "inputs": [],
      "name": "PAUSER_ROLE",
      "outputs": [
        {
          "internalType": "bytes32",
          "name": "",
          "type": "bytes32"
        }
      ],
      "stateMutability": "view",
      "type": "function"
    },
    {
      "inputs": [
        {
          "internalType": "address",
          "name": "owner",
          "type": "address"
        },
        {
          "internalType": "address",
          "name": "spender",
          "type": "address"
        }
      ],
      "name": "allowance",
      "outputs": [
        {
          "internalType": "uint256",
          "name": "",
          "type": "uint256"
        }
      ],
      "stateMutability": "view",
      "type": "function"
    },
    {
      "inputs": [
        {
          "internalType": "address",
          "name": "spender",
          "type": "address"
        },
        {
          "internalType": "uint256",
          "name": "amount",
          "type": "uint256"
        }
      ],
      "name": "approve",
      "outputs": [
        {
          "internalType": "bool",
          "name": "",
          "type": "bool"
        }
      ],
      "stateMutability": "nonpayable",
      "type": "function"
    },
    {
      "inputs": [
        {
          "internalType": "address",
          "name": "account",
          "type": "address"
        }
      ],
      "name": "balanceOf",
      "outputs": [
        {
          "internalType": "uint256",
          "name": "",
          "type": "uint256"
        }
      ],
      "stateMutability": "view",
      "type": "function"
    },
    {
      "inputs": [
        {
          "internalType": "uint256",
          "name": "amount",
          "type": "uint256"
        }
      ],
      "name": "burn",
      "outputs": [],
      "stateMutability": "nonpayable",
      "type": "function"
    },
    {
      "inputs": [
        {
          "internalType": "address",
          "name": "account",
          "type": "address"
        },
        {
          "internalType": "uint256",
          "name": "amount",
          "type": "uint256"
        }
      ],
      "name": "burnFrom",
      "outputs": [],
      "stateMutability": "nonpayable",
      "type": "function"
    },
    {
      "inputs": [],
      "name": "decimals",
      "outputs": [
        {
          "internalType": "uint8",
          "name": "",
          "type": "uint8"
        }
      ],
      "stateMutability": "view",
      "type": "function"
    },
    {
      "inputs": [
        {
          "internalType": "address",
          "name": "spender",
          "type": "address"
        },
        {
          "internalType": "uint256",
          "name": "subtractedValue",
          "type": "uint256"
        }
      ],
      "name": "decreaseAllowance",
      "outputs": [
        {
          "internalType": "bool",
          "name": "",
          "type": "bool"
        }
      ],
      "stateMutability": "nonpayable",
      "type": "function"
    },
    {
      "inputs": [
        {
          "internalType": "address",
          "name": "user",
          "type": "address"
        },
        {
          "internalType": "bytes",
          "name": "depositData",
          "type": "bytes"
        }
      ],
      "name": "deposit",
      "outputs": [],
      "stateMutability": "nonpayable",
      "type": "function"
    },
    {
      "inputs": [
        {
          "internalType": "bytes32",
          "name": "role",
          "type": "bytes32"
        }
      ],
      "name": "getRoleAdmin",
      "outputs": [
        {
          "internalType": "bytes32",
          "name": "",
          "type": "bytes32"
        }
      ],
      "stateMutability": "view",
      "type": "function"
    },
    {
      "inputs": [
        {
          "internalType": "bytes32",
          "name": "role",
          "type": "bytes32"
        },
        {
          "internalType": "uint256",
          "name": "index",
          "type": "uint256"
        }
      ],
      "name": "getRoleMember",
      "outputs": [
        {
          "internalType": "address",
          "name": "",
          "type": "address"
        }
      ],
      "stateMutability": "view",
      "type": "function"
    },
    {
      "inputs": [
        {
          "internalType": "bytes32",
          "name": "role",
          "type": "bytes32"
        }
      ],
      "name": "getRoleMemberCount",
      "outputs": [
        {
          "internalType": "uint256",
          "name": "",
          "type": "uint256"
        }
      ],
      "stateMutability": "view",
      "type": "function"
    },
    {
      "inputs": [
        {
          "internalType": "bytes32",
          "name": "role",
          "type": "bytes32"
        },
        {
          "internalType": "address",
          "name": "account",
          "type": "address"
        }
      ],
      "name": "grantRole",
      "outputs": [],
      "stateMutability": "nonpayable",
      "type": "function"
    },
    {
      "inputs": [
        {
          "internalType": "bytes32",
          "name": "role",
          "type": "bytes32"
        },
        {
          "internalType": "address",
          "name": "account",
          "type": "address"
        }
      ],
      "name": "hasRole",
      "outputs": [
        {
          "internalType": "bool",
          "name": "",
          "type": "bool"
        }
      ],
      "stateMutability": "view",
      "type": "function"
    },
    {
      "inputs": [
        {
          "internalType": "address",
          "name": "spender",
          "type": "address"
        },
        {
          "internalType": "uint256",
          "name": "addedValue",
          "type": "uint256"
        }
      ],
      "name": "increaseAllowance",
      "outputs": [
        {
          "internalType": "bool",
          "name": "",
          "type": "bool"
        }
      ],
      "stateMutability": "nonpayable",
      "type": "function"
    },
    {
      "inputs": [],
      "name": "layer1Supply",
      "outputs": [
        {
          "internalType": "uint256",
          "name": "",
          "type": "uint256"
        }
      ],
      "stateMutability": "view",
      "type": "function"
    },
    {
      "inputs": [
        {
          "internalType": "address",
          "name": "to",
          "type": "address"
        },
        {
          "internalType": "uint256",
          "name": "amount",
          "type": "uint256"
        }
      ],
      "name": "mint",
      "outputs": [],
      "stateMutability": "nonpayable",
      "type": "function"
    },
    {
      "inputs": [],
      "name": "name",
      "outputs": [
        {
          "internalType": "string",
          "name": "",
          "type": "string"
        }
      ],
      "stateMutability": "view",
      "type": "function"
    },
    {
      "inputs": [
        {
          "internalType": "address",
          "name": "owner",
          "type": "address"
        }
      ],
      "name": "nonces",
      "outputs": [
        {
          "internalType": "uint256",
          "name": "",
          "type": "uint256"
        }
      ],
      "stateMutability": "view",
      "type": "function"
    },
    {
      "inputs": [],
      "name": "pause",
      "outputs": [],
      "stateMutability": "nonpayable",
      "type": "function"
    },
    {
      "inputs": [],
      "name": "paused",
      "outputs": [
        {
          "internalType": "bool",
          "name": "",
          "type": "bool"
        }
      ],
      "stateMutability": "view",
      "type": "function"
    },
    {
      "inputs": [
        {
          "internalType": "address",
          "name": "owner",
          "type": "address"
        },
        {
          "internalType": "address",
          "name": "spender",
          "type": "address"
        },
        {
          "internalType": "uint256",
          "name": "value",
          "type": "uint256"
        },
        {
          "internalType": "uint256",
          "name": "deadline",
          "type": "uint256"
        },
        {
          "internalType": "uint8",
          "name": "v",
          "type": "uint8"
        },
        {
          "internalType": "bytes32",
          "name": "r",
          "type": "bytes32"
        },
        {
          "internalType": "bytes32",
          "name": "s",
          "type": "bytes32"
        }
      ],
      "name": "permit",
      "outputs": [],
      "stateMutability": "nonpayable",
      "type": "function"
    },
    {
      "inputs": [
        {
          "internalType": "bytes32",
          "name": "role",
          "type": "bytes32"
        },
        {
          "internalType": "address",
          "name": "account",
          "type": "address"
        }
      ],
      "name": "renounceRole",
      "outputs": [],
      "stateMutability": "nonpayable",
      "type": "function"
    },
    {
      "inputs": [
        {
          "internalType": "bytes32",
          "name": "role",
          "type": "bytes32"
        },
        {
          "internalType": "address",
          "name": "account",
          "type": "address"
        }
      ],
      "name": "revokeRole",
      "outputs": [],
      "stateMutability": "nonpayable",
      "type": "function"
    },
    {
      "inputs": [
        {
          "internalType": "bytes4",
          "name": "interfaceId",
          "type": "bytes4"
        }
      ],
      "name": "supportsInterface",
      "outputs": [
        {
          "internalType": "bool",
          "name": "",
          "type": "bool"
        }
      ],
      "stateMutability": "view",
      "type": "function"
    },
    {
      "inputs": [],
      "name": "symbol",
      "outputs": [
        {
          "internalType": "string",
          "name": "",
          "type": "string"
        }
      ],
      "stateMutability": "view",
      "type": "function"
    },
    {
      "inputs": [],
      "name": "totalSupply",
      "outputs": [
        {
          "internalType": "uint256",
          "name": "",
          "type": "uint256"
        }
      ],
      "stateMutability": "view",
      "type": "function"
    },
    {
      "inputs": [
        {
          "internalType": "address",
          "name": "recipient",
          "type": "address"
        },
        {
          "internalType": "uint256",
          "name": "amount",
          "type": "uint256"
        }
      ],
      "name": "transfer",
      "outputs": [
        {
          "internalType": "bool",
          "name": "",
          "type": "bool"
        }
      ],
      "stateMutability": "nonpayable",
      "type": "function"
    },
    {
      "inputs": [
        {
          "internalType": "address",
          "name": "sender",
          "type": "address"
        },
        {
          "internalType": "address",
          "name": "recipient",
          "type": "address"
        },
        {
          "internalType": "uint256",
          "name": "amount",
          "type": "uint256"
        }
      ],
      "name": "transferFrom",
      "outputs": [
        {
          "internalType": "bool",
          "name": "",
          "type": "bool"
        }
      ],
      "stateMutability": "nonpayable",
      "type": "function"
    },
    {
      "inputs": [],
      "name": "unpause",
      "outputs": [],
      "stateMutability": "nonpayable",
      "type": "function"
    },
    {
      "inputs": [
        {
          "internalType": "uint256",
          "name": "amount",
          "type": "uint256"
        }
      ],
      "name": "withdraw",
      "outputs": [],
      "stateMutability": "nonpayable",
      "type": "function"
    }
  ],
  "transactionHash": "0xa035476a907f0beda885a20e964b46ec20d96100c0e51490cbf24702cba9e9ac",
  "args": [
    "0xfAb4cf18bcbf1Fa8192Da8846Fef70D4f7c75667",
    "0xb5505a6d998549090530911180f38aC5130101c6"
  ],
  "solcInputHash": "ba66afc0aba665482e8cea584d12e38d",
  "bytecode": "0x6101406040527f6e71edae12b1b97f4d1f60370fef10105fa2faae0126114a169c64845d6126c9610120908152503480156200003a57600080fd5b5060405162004e2e38038062004e2e833981810160405281019062000060919062000aa9565b6040518060400160405280600d81526020017f4461696c79436f70546f6b656e00000000000000000000000000000000000000815250806040518060400160405280600181526020017f31000000000000000000000000000000000000000000000000000000000000008152506040518060400160405280600d81526020017f4461696c79436f70546f6b656e000000000000000000000000000000000000008152506040518060400160405280600681526020017f444c59434f5000000000000000000000000000000000000000000000000000008152508181816005908051906020019062000153929190620009e2565b5080600690805190602001906200016c929190620009e2565b5050506000600760006101000a81548160ff021916908315150217905550620001ae6000801b620001a26200037860201b60201c565b6200038060201b60201c565b620001ef7f9f2df0fed2c77648de5860a4cc508cd0818c85b8b8a1ab4ceeef8d981c8956a6620001e36200037860201b60201c565b6200038060201b60201c565b620002307f65d7a28e3265b37a6474929f336521b332c1681b933f6cb9f3376673440d862a620002246200037860201b60201c565b6200038060201b60201c565b505060008280519060200120905060008280519060200120905060007f8b73c3c69bb8fe3d512ecc4cf759cc79239f7b179b0ffacaa9a75d522b39400f90508260c081815250508160e081815250504660a081815250506200029a818484620003c860201b60201c565b60808181525050806101008181525050505050505050620002c56000801b836200038060201b60201c565b620002f77f8f4f2da22e8ac8f11e15f9fc141cddbb5deea8800186560abb6e68c5496619a9826200038060201b60201c565b6200030c6000801b336200040460201b60201c565b6200033e7f9f2df0fed2c77648de5860a4cc508cd0818c85b8b8a1ab4ceeef8d981c8956a6336200040460201b60201c565b620003707f65d7a28e3265b37a6474929f336521b332c1681b933f6cb9f3376673440d862a336200040460201b60201c565b505062000d54565b600033905090565b6200039782826200044c60201b620012761760201c565b620003c381600160008581526020019081526020016000206200046260201b620012841790919060201c565b505050565b60008383834630604051602001620003e595949392919062000b44565b6040516020818303038152906040528051906020012090509392505050565b6200041b82826200049a60201b620012b41760201c565b6200044781600160008581526020019081526020016000206200053060201b620013371790919060201c565b505050565b6200045e82826200056860201b60201c565b5050565b600062000492836000018373ffffffffffffffffffffffffffffffffffffffff1660001b6200065960201b60201c565b905092915050565b620004aa6200037860201b60201c565b73ffffffffffffffffffffffffffffffffffffffff168173ffffffffffffffffffffffffffffffffffffffff16146200051a576040517f08c379a0000000000000000000000000000000000000000000000000000000008152600401620005119062000ba1565b60405180910390fd5b6200052c8282620006d360201b60201c565b5050565b600062000560836000018373ffffffffffffffffffffffffffffffffffffffff1660001b620007c560201b60201c565b905092915050565b6200057a82826200095560201b60201c565b6200065557600160008084815260200190815260200160002060000160008373ffffffffffffffffffffffffffffffffffffffff1673ffffffffffffffffffffffffffffffffffffffff16815260200190815260200160002060006101000a81548160ff021916908315150217905550620005fa6200037860201b60201c565b73ffffffffffffffffffffffffffffffffffffffff168173ffffffffffffffffffffffffffffffffffffffff16837f2f8788117e7eff1d82e926ec794901d17c78024a50270940304540a733656f0d60405160405180910390a45b5050565b60006200066d8383620009bf60201b60201c565b620006c8578260000182908060018154018082558091505060019003906000526020600020016000909190919091505582600001805490508360010160008481526020019081526020016000208190555060019050620006cd565b600090505b92915050565b620006e582826200095560201b60201c565b15620007c157600080600084815260200190815260200160002060000160008373ffffffffffffffffffffffffffffffffffffffff1673ffffffffffffffffffffffffffffffffffffffff16815260200190815260200160002060006101000a81548160ff021916908315150217905550620007666200037860201b60201c565b73ffffffffffffffffffffffffffffffffffffffff168173ffffffffffffffffffffffffffffffffffffffff16837ff6391f5c32d9c69d2a47ea670b442974b53935d1edc7fd64eb21e047a839171b60405160405180910390a45b5050565b6000808360010160008481526020019081526020016000205490506000811462000949576000600182620007fa919062000bd4565b905060006001866000018054905062000814919062000bd4565b9050818114620008d25760008660000182815481106200085d577f4e487b7100000000000000000000000000000000000000000000000000000000600052603260045260246000fd5b9060005260206000200154905080876000018481548110620008a8577f4e487b7100000000000000000000000000000000000000000000000000000000600052603260045260246000fd5b90600052602060002001819055508387600101600083815260200190815260200160002081905550505b856000018054806200090d577f4e487b7100000000000000000000000000000000000000000000000000000000600052603160045260246000fd5b6001900381819060005260206000200160009055905585600101600086815260200190815260200160002060009055600193505050506200094f565b60009150505b92915050565b600080600084815260200190815260200160002060000160008373ffffffffffffffffffffffffffffffffffffffff1673ffffffffffffffffffffffffffffffffffffffff16815260200190815260200160002060009054906101000a900460ff16905092915050565b600080836001016000848152602001908152602001600020541415905092915050565b828054620009f09062000c57565b90600052602060002090601f01602090048101928262000a14576000855562000a60565b82601f1062000a2f57805160ff191683800117855562000a60565b8280016001018555821562000a60579182015b8281111562000a5f57825182559160200191906001019062000a42565b5b50905062000a6f919062000a73565b5090565b5b8082111562000a8e57600081600090555060010162000a74565b5090565b60008151905062000aa38162000d3a565b92915050565b6000806040838503121562000abd57600080fd5b600062000acd8582860162000a92565b925050602062000ae08582860162000a92565b9150509250929050565b62000af58162000c0f565b82525050565b62000b068162000c23565b82525050565b600062000b1b602f8362000bc3565b915062000b288262000ceb565b604082019050919050565b62000b3e8162000c4d565b82525050565b600060a08201905062000b5b600083018862000afb565b62000b6a602083018762000afb565b62000b79604083018662000afb565b62000b88606083018562000b33565b62000b97608083018462000aea565b9695505050505050565b6000602082019050818103600083015262000bbc8162000b0c565b9050919050565b600082825260208201905092915050565b600062000be18262000c4d565b915062000bee8362000c4d565b92508282101562000c045762000c0362000c8d565b5b828203905092915050565b600062000c1c8262000c2d565b9050919050565b6000819050919050565b600073ffffffffffffffffffffffffffffffffffffffff82169050919050565b6000819050919050565b6000600282049050600182168062000c7057607f821691505b6020821081141562000c875762000c8662000cbc565b5b50919050565b7f4e487b7100000000000000000000000000000000000000000000000000000000600052601160045260246000fd5b7f4e487b7100000000000000000000000000000000000000000000000000000000600052602260045260246000fd5b7f416363657373436f6e74726f6c3a2063616e206f6e6c792072656e6f756e636560008201527f20726f6c657320666f722073656c660000000000000000000000000000000000602082015250565b62000d458162000c0f565b811462000d5157600080fd5b50565b60805160a05160c05160e051610100516101205161408a62000da4600039600061107801526000611a9101526000611ad301526000611ab201526000611a3e01526000611a66015261408a6000f3fe608060405234801561001057600080fd5b50600436106102115760003560e01c806379cc679011610125578063a457c2d7116100ad578063d505accf1161007c578063d505accf1461063c578063d539139314610658578063d547741f14610676578063dd62ed3e14610692578063e63ab1e9146106c257610211565b8063a457c2d714610590578063a9059cbb146105c0578063ca15c873146105f0578063cf2c52cb1461062057610211565b806391d14854116100f457806391d14854146104e857806395d89b41146105185780639e17a43314610536578063a217fddf14610554578063a3b0b5a31461057257610211565b806379cc6790146104625780637ecebe001461047e5780638456cb59146104ae5780639010d07c146104b857610211565b8063313ce567116101a85780633f4ba83a116101775780633f4ba83a146103d257806340c10f19146103dc57806342966c68146103f85780635c975abb1461041457806370a082311461043257610211565b8063313ce5671461034a5780633644e5151461036857806336568abe1461038657806339509351146103a257610211565b806323b872dd116101e457806323b872dd146102b2578063248a9ca3146102e25780632e1a7d4d146103125780632f2ff15d1461032e57610211565b806301ffc9a71461021657806306fdde0314610246578063095ea7b31461026457806318160ddd14610294575b600080fd5b610230600480360381019061022b9190612c88565b6106e0565b60405161023d91906131e3565b60405180910390f35b61024e61075a565b60405161025b9190613312565b60405180910390f35b61027e60048036038101906102799190612bab565b6107ec565b60405161028b91906131e3565b60405180910390f35b61029c61080a565b6040516102a99190613634565b60405180910390f35b6102cc60048036038101906102c79190612a66565b610814565b6040516102d991906131e3565b60405180910390f35b6102fc60048036038101906102f79190612be7565b61090c565b60405161030991906131fe565b60405180910390f35b61032c60048036038101906103279190612cb1565b61092b565b005b61034860048036038101906103439190612c10565b610958565b005b61035261098c565b60405161035f919061364f565b60405180910390f35b610370610995565b60405161037d91906131fe565b60405180910390f35b6103a0600480360381019061039b9190612c10565b6109a4565b005b6103bc60048036038101906103b79190612bab565b6109d8565b6040516103c991906131e3565b60405180910390f35b6103da610a84565b005b6103f660048036038101906103f19190612bab565b610afe565b005b610412600480360381019061040d9190612cb1565b610b7c565b005b61041c610b90565b60405161042991906131e3565b60405180910390f35b61044c60048036038101906104479190612a01565b610ba7565b6040516104599190613634565b60405180910390f35b61047c60048036038101906104779190612bab565b610bf0565b005b61049860048036038101906104939190612a01565b610c6b565b6040516104a59190613634565b60405180910390f35b6104b6610cbb565b005b6104d260048036038101906104cd9190612c4c565b610d35565b6040516104df91906131c8565b60405180910390f35b61050260048036038101906104fd9190612c10565b610d64565b60405161050f91906131e3565b60405180910390f35b610520610dce565b60405161052d9190613312565b60405180910390f35b61053e610e60565b60405161054b9190613634565b60405180910390f35b61055c610e6a565b60405161056991906131fe565b60405180910390f35b61057a610e71565b60405161058791906131fe565b60405180910390f35b6105aa60048036038101906105a59190612bab565b610e95565b6040516105b791906131e3565b60405180910390f35b6105da60048036038101906105d59190612bab565b610f80565b6040516105e791906131e3565b60405180910390f35b61060a60048036038101906106059190612be7565b610f9e565b6040516106179190613634565b60405180910390f35b61063a60048036038101906106359190612b53565b610fc2565b005b61065660048036038101906106519190612ab5565b611031565b005b610660611173565b60405161066d91906131fe565b60405180910390f35b610690600480360381019061068b9190612c10565b611197565b005b6106ac60048036038101906106a79190612a2a565b6111cb565b6040516106b99190613634565b60405180910390f35b6106ca611252565b6040516106d791906131fe565b60405180910390f35b60007f5a05180f000000000000000000000000000000000000000000000000000000007bffffffffffffffffffffffffffffffffffffffffffffffffffffffff1916827bffffffffffffffffffffffffffffffffffffffffffffffffffffffff19161480610753575061075282611367565b5b9050919050565b6060600580546107699061385d565b80601f01602080910402602001604051908101604052809291908181526020018280546107959061385d565b80156107e25780601f106107b7576101008083540402835291602001916107e2565b820191906000526020600020905b8154815290600101906020018083116107c557829003601f168201915b5050505050905090565b60006108006107f96113e1565b84846113e9565b6001905092915050565b6000600454905090565b60006108218484846115b4565b6000600360008673ffffffffffffffffffffffffffffffffffffffff1673ffffffffffffffffffffffffffffffffffffffff168152602001908152602001600020600061086c6113e1565b73ffffffffffffffffffffffffffffffffffffffff1673ffffffffffffffffffffffffffffffffffffffff168152602001908152602001600020549050828110156108ec576040517f08c379a00000000000000000000000000000000000000000000000000000000081526004016108e3906134d4565b60405180910390fd5b610900856108f86113e1565b8584036113e9565b60019150509392505050565b6000806000838152602001908152602001600020600101549050919050565b806009600082825461093d9190613691565b9250508190555061095561094f6113e1565b82611838565b50565b6109628282611a11565b610987816001600085815260200190815260200160002061128490919063ffffffff16565b505050565b60006012905090565b600061099f611a3a565b905090565b6109ae82826112b4565b6109d3816001600085815260200190815260200160002061133790919063ffffffff16565b505050565b6000610a7a6109e56113e1565b8484600360006109f36113e1565b73ffffffffffffffffffffffffffffffffffffffff1673ffffffffffffffffffffffffffffffffffffffff16815260200190815260200160002060008873ffffffffffffffffffffffffffffffffffffffff1673ffffffffffffffffffffffffffffffffffffffff16815260200190815260200160002054610a759190613691565b6113e9565b6001905092915050565b610ab57f65d7a28e3265b37a6474929f336521b332c1681b933f6cb9f3376673440d862a610ab06113e1565b610d64565b610af4576040517f08c379a0000000000000000000000000000000000000000000000000000000008152600401610aeb906133d4565b60405180910390fd5b610afc611afd565b565b610b2f7f9f2df0fed2c77648de5860a4cc508cd0818c85b8b8a1ab4ceeef8d981c8956a6610b2a6113e1565b610d64565b610b6e576040517f08c379a0000000000000000000000000000000000000000000000000000000008152600401610b65906134f4565b60405180910390fd5b610b788282611b9f565b5050565b610b8d610b876113e1565b82611838565b50565b6000600760009054906101000a900460ff16905090565b6000600260008373ffffffffffffffffffffffffffffffffffffffff1673ffffffffffffffffffffffffffffffffffffffff168152602001908152602001600020549050919050565b6000610c0383610bfe6113e1565b6111cb565b905081811015610c48576040517f08c379a0000000000000000000000000000000000000000000000000000000008152600401610c3f90613514565b60405180910390fd5b610c5c83610c546113e1565b8484036113e9565b610c668383611838565b505050565b6000610cb4600860008473ffffffffffffffffffffffffffffffffffffffff1673ffffffffffffffffffffffffffffffffffffffff168152602001908152602001600020611d00565b9050919050565b610cec7f65d7a28e3265b37a6474929f336521b332c1681b933f6cb9f3376673440d862a610ce76113e1565b610d64565b610d2b576040517f08c379a0000000000000000000000000000000000000000000000000000000008152600401610d2290613594565b60405180910390fd5b610d33611d0e565b565b6000610d5c8260016000868152602001908152602001600020611db190919063ffffffff16565b905092915050565b600080600084815260200190815260200160002060000160008373ffffffffffffffffffffffffffffffffffffffff1673ffffffffffffffffffffffffffffffffffffffff16815260200190815260200160002060009054906101000a900460ff16905092915050565b606060068054610ddd9061385d565b80601f0160208091040260200160405190810160405280929190818152602001828054610e099061385d565b8015610e565780601f10610e2b57610100808354040283529160200191610e56565b820191906000526020600020905b815481529060010190602001808311610e3957829003601f168201915b5050505050905090565b6000600954905090565b6000801b81565b7f8f4f2da22e8ac8f11e15f9fc141cddbb5deea8800186560abb6e68c5496619a981565b60008060036000610ea46113e1565b73ffffffffffffffffffffffffffffffffffffffff1673ffffffffffffffffffffffffffffffffffffffff16815260200190815260200160002060008573ffffffffffffffffffffffffffffffffffffffff1673ffffffffffffffffffffffffffffffffffffffff16815260200190815260200160002054905082811015610f61576040517f08c379a0000000000000000000000000000000000000000000000000000000008152600401610f58906135b4565b60405180910390fd5b610f75610f6c6113e1565b858584036113e9565b600191505092915050565b6000610f94610f8d6113e1565b84846115b4565b6001905092915050565b6000610fbb60016000848152602001908152602001600020611dcb565b9050919050565b7f8f4f2da22e8ac8f11e15f9fc141cddbb5deea8800186560abb6e68c5496619a9610ff481610fef6113e1565b611de0565b600083838101906110059190612cb1565b905080600960008282546110199190613741565b9250508190555061102a8582611b9f565b5050505050565b83421115611074576040517f08c379a000000000000000000000000000000000000000000000000000000000815260040161106b90613414565b60405180910390fd5b60007f00000000000000000000000000000000000000000000000000000000000000008888886110a38c611e7d565b896040516020016110b996959493929190613219565b60405160208183030381529060405280519060200120905060006110dc82611edb565b905060006110ec82878787611ef5565b90508973ffffffffffffffffffffffffffffffffffffffff168173ffffffffffffffffffffffffffffffffffffffff161461115c576040517f08c379a0000000000000000000000000000000000000000000000000000000008152600401611153906134b4565b60405180910390fd5b6111678a8a8a6113e9565b50505050505050505050565b7f9f2df0fed2c77648de5860a4cc508cd0818c85b8b8a1ab4ceeef8d981c8956a681565b6111a18282612080565b6111c6816001600085815260200190815260200160002061133790919063ffffffff16565b505050565b6000600360008473ffffffffffffffffffffffffffffffffffffffff1673ffffffffffffffffffffffffffffffffffffffff16815260200190815260200160002060008373ffffffffffffffffffffffffffffffffffffffff1673ffffffffffffffffffffffffffffffffffffffff16815260200190815260200160002054905092915050565b7f65d7a28e3265b37a6474929f336521b332c1681b933f6cb9f3376673440d862a81565b61128082826120a9565b5050565b60006112ac836000018373ffffffffffffffffffffffffffffffffffffffff1660001b612189565b905092915050565b6112bc6113e1565b73ffffffffffffffffffffffffffffffffffffffff168173ffffffffffffffffffffffffffffffffffffffff1614611329576040517f08c379a0000000000000000000000000000000000000000000000000000000008152600401611320906135d4565b60405180910390fd5b61133382826121f9565b5050565b600061135f836000018373ffffffffffffffffffffffffffffffffffffffff1660001b6122da565b905092915050565b60007f7965db0b000000000000000000000000000000000000000000000000000000007bffffffffffffffffffffffffffffffffffffffffffffffffffffffff1916827bffffffffffffffffffffffffffffffffffffffffffffffffffffffff191614806113da57506113d982612460565b5b9050919050565b600033905090565b600073ffffffffffffffffffffffffffffffffffffffff168373ffffffffffffffffffffffffffffffffffffffff161415611459576040517f08c379a000000000000000000000000000000000000000000000000000000000815260040161145090613574565b60405180910390fd5b600073ffffffffffffffffffffffffffffffffffffffff168273ffffffffffffffffffffffffffffffffffffffff1614156114c9576040517f08c379a00000000000000000000000000000000000000000000000000000000081526004016114c0906133f4565b60405180910390fd5b80600360008573ffffffffffffffffffffffffffffffffffffffff1673ffffffffffffffffffffffffffffffffffffffff16815260200190815260200160002060008473ffffffffffffffffffffffffffffffffffffffff1673ffffffffffffffffffffffffffffffffffffffff168152602001908152602001600020819055508173ffffffffffffffffffffffffffffffffffffffff168373ffffffffffffffffffffffffffffffffffffffff167f8c5be1e5ebec7d5bd14f71427d1e84f3dd0314c0f7b2291e5b200ac8c7c3b925836040516115a79190613634565b60405180910390a3505050565b600073ffffffffffffffffffffffffffffffffffffffff168373ffffffffffffffffffffffffffffffffffffffff161415611624576040517f08c379a000000000000000000000000000000000000000000000000000000000815260040161161b90613554565b60405180910390fd5b600073ffffffffffffffffffffffffffffffffffffffff168273ffffffffffffffffffffffffffffffffffffffff161415611694576040517f08c379a000000000000000000000000000000000000000000000000000000000815260040161168b90613374565b60405180910390fd5b61169f8383836124ca565b6000600260008573ffffffffffffffffffffffffffffffffffffffff1673ffffffffffffffffffffffffffffffffffffffff16815260200190815260200160002054905081811015611726576040517f08c379a000000000000000000000000000000000000000000000000000000000815260040161171d90613434565b60405180910390fd5b818103600260008673ffffffffffffffffffffffffffffffffffffffff1673ffffffffffffffffffffffffffffffffffffffff1681526020019081526020016000208190555081600260008573ffffffffffffffffffffffffffffffffffffffff1673ffffffffffffffffffffffffffffffffffffffff16815260200190815260200160002060008282546117bb9190613691565b925050819055508273ffffffffffffffffffffffffffffffffffffffff168473ffffffffffffffffffffffffffffffffffffffff167fddf252ad1be2c89b69c2b068fc378daa952ba7f163c4a11628f55a4df523b3ef8460405161181f9190613634565b60405180910390a36118328484846124da565b50505050565b600073ffffffffffffffffffffffffffffffffffffffff168273ffffffffffffffffffffffffffffffffffffffff1614156118a8576040517f08c379a000000000000000000000000000000000000000000000000000000000815260040161189f90613534565b60405180910390fd5b6118b4826000836124ca565b6000600260008473ffffffffffffffffffffffffffffffffffffffff1673ffffffffffffffffffffffffffffffffffffffff1681526020019081526020016000205490508181101561193b576040517f08c379a0000000000000000000000000000000000000000000000000000000008152600401611932906133b4565b60405180910390fd5b818103600260008573ffffffffffffffffffffffffffffffffffffffff1673ffffffffffffffffffffffffffffffffffffffff1681526020019081526020016000208190555081600460008282546119939190613741565b92505081905550600073ffffffffffffffffffffffffffffffffffffffff168373ffffffffffffffffffffffffffffffffffffffff167fddf252ad1be2c89b69c2b068fc378daa952ba7f163c4a11628f55a4df523b3ef846040516119f89190613634565b60405180910390a3611a0c836000846124da565b505050565b611a1a8261090c565b611a2b81611a266113e1565b611de0565b611a3583836120a9565b505050565b60007f0000000000000000000000000000000000000000000000000000000000000000461415611a8c577f00000000000000000000000000000000000000000000000000000000000000009050611afa565b611af77f00000000000000000000000000000000000000000000000000000000000000007f00000000000000000000000000000000000000000000000000000000000000007f00000000000000000000000000000000000000000000000000000000000000006124df565b90505b90565b611b05610b90565b611b44576040517f08c379a0000000000000000000000000000000000000000000000000000000008152600401611b3b90613394565b60405180910390fd5b6000600760006101000a81548160ff0219169083151502179055507f5db9ee0a495bf2e6ff9c91a7834c1ba4fdd244a5e8aa4e537bd38aeae4b073aa611b886113e1565b604051611b9591906131c8565b60405180910390a1565b600073ffffffffffffffffffffffffffffffffffffffff168273ffffffffffffffffffffffffffffffffffffffff161415611c0f576040517f08c379a0000000000000000000000000000000000000000000000000000000008152600401611c06906135f4565b60405180910390fd5b611c1b600083836124ca565b8060046000828254611c2d9190613691565b9250508190555080600260008473ffffffffffffffffffffffffffffffffffffffff1673ffffffffffffffffffffffffffffffffffffffff1681526020019081526020016000206000828254611c839190613691565b925050819055508173ffffffffffffffffffffffffffffffffffffffff16600073ffffffffffffffffffffffffffffffffffffffff167fddf252ad1be2c89b69c2b068fc378daa952ba7f163c4a11628f55a4df523b3ef83604051611ce89190613634565b60405180910390a3611cfc600083836124da565b5050565b600081600001549050919050565b611d16610b90565b15611d56576040517f08c379a0000000000000000000000000000000000000000000000000000000008152600401611d4d90613474565b60405180910390fd5b6001600760006101000a81548160ff0219169083151502179055507f62e78cea01bee320cd4e420270b5ea74000d11b0c9f74754ebdbfc544b05a258611d9a6113e1565b604051611da791906131c8565b60405180910390a1565b6000611dc08360000183612519565b60001c905092915050565b6000611dd98260000161256a565b9050919050565b611dea8282610d64565b611e7957611e0f8173ffffffffffffffffffffffffffffffffffffffff16601461257b565b611e1d8360001c602061257b565b604051602001611e2e92919061318e565b6040516020818303038152906040526040517f08c379a0000000000000000000000000000000000000000000000000000000008152600401611e709190613312565b60405180910390fd5b5050565b600080600860008473ffffffffffffffffffffffffffffffffffffffff1673ffffffffffffffffffffffffffffffffffffffff1681526020019081526020016000209050611eca81611d00565b9150611ed581612875565b50919050565b6000611eee611ee8611a3a565b8361288b565b9050919050565b60007f7fffffffffffffffffffffffffffffff5d576e7357a4501ddfe92f46681b20a08260001c1115611f5d576040517f08c379a0000000000000000000000000000000000000000000000000000000008152600401611f5490613454565b60405180910390fd5b601b8460ff161480611f725750601c8460ff16145b611fb1576040517f08c379a0000000000000000000000000000000000000000000000000000000008152600401611fa890613494565b60405180910390fd5b600060018686868660405160008152602001604052604051611fd694939291906132cd565b6020604051602081039080840390855afa158015611ff8573d6000803e3d6000fd5b505050602060405103519050600073ffffffffffffffffffffffffffffffffffffffff168173ffffffffffffffffffffffffffffffffffffffff161415612074576040517f08c379a000000000000000000000000000000000000000000000000000000000815260040161206b90613334565b60405180910390fd5b80915050949350505050565b6120898261090c565b61209a816120956113e1565b611de0565b6120a483836121f9565b505050565b6120b38282610d64565b61218557600160008084815260200190815260200160002060000160008373ffffffffffffffffffffffffffffffffffffffff1673ffffffffffffffffffffffffffffffffffffffff16815260200190815260200160002060006101000a81548160ff02191690831515021790555061212a6113e1565b73ffffffffffffffffffffffffffffffffffffffff168173ffffffffffffffffffffffffffffffffffffffff16837f2f8788117e7eff1d82e926ec794901d17c78024a50270940304540a733656f0d60405160405180910390a45b5050565b600061219583836128be565b6121ee5782600001829080600181540180825580915050600190039060005260206000200160009091909190915055826000018054905083600101600084815260200190815260200160002081905550600190506121f3565b600090505b92915050565b6122038282610d64565b156122d657600080600084815260200190815260200160002060000160008373ffffffffffffffffffffffffffffffffffffffff1673ffffffffffffffffffffffffffffffffffffffff16815260200190815260200160002060006101000a81548160ff02191690831515021790555061227b6113e1565b73ffffffffffffffffffffffffffffffffffffffff168173ffffffffffffffffffffffffffffffffffffffff16837ff6391f5c32d9c69d2a47ea670b442974b53935d1edc7fd64eb21e047a839171b60405160405180910390a45b5050565b6000808360010160008481526020019081526020016000205490506000811461245457600060018261230c9190613741565b90506000600186600001805490506123249190613741565b90508181146123df57600086600001828154811061236b577f4e487b7100000000000000000000000000000000000000000000000000000000600052603260045260246000fd5b90600052602060002001549050808760000184815481106123b5577f4e487b7100000000000000000000000000000000000000000000000000000000600052603260045260246000fd5b90600052602060002001819055508387600101600083815260200190815260200160002081905550505b85600001805480612419577f4e487b7100000000000000000000000000000000000000000000000000000000600052603160045260246000fd5b60019003818190600052602060002001600090559055856001016000868152602001908152602001600020600090556001935050505061245a565b60009150505b92915050565b60007f01ffc9a7000000000000000000000000000000000000000000000000000000007bffffffffffffffffffffffffffffffffffffffffffffffffffffffff1916827bffffffffffffffffffffffffffffffffffffffffffffffffffffffff1916149050919050565b6124d58383836128e1565b505050565b505050565b600083838346306040516020016124fa95949392919061327a565b6040516020818303038152906040528051906020012090509392505050565b6000826000018281548110612557577f4e487b7100000000000000000000000000000000000000000000000000000000600052603260045260246000fd5b9060005260206000200154905092915050565b600081600001805490509050919050565b60606000600283600261258e91906136e7565b6125989190613691565b67ffffffffffffffff8111156125d7577f4e487b7100000000000000000000000000000000000000000000000000000000600052604160045260246000fd5b6040519080825280601f01601f1916602001820160405280156126095781602001600182028036833780820191505090505b5090507f300000000000000000000000000000000000000000000000000000000000000081600081518110612667577f4e487b7100000000000000000000000000000000000000000000000000000000600052603260045260246000fd5b60200101907effffffffffffffffffffffffffffffffffffffffffffffffffffffffffffff1916908160001a9053507f7800000000000000000000000000000000000000000000000000000000000000816001815181106126f1577f4e487b7100000000000000000000000000000000000000000000000000000000600052603260045260246000fd5b60200101907effffffffffffffffffffffffffffffffffffffffffffffffffffffffffffff1916908160001a9053506000600184600261273191906136e7565b61273b9190613691565b90505b6001811115612827577f3031323334353637383961626364656600000000000000000000000000000000600f8616601081106127a3577f4e487b7100000000000000000000000000000000000000000000000000000000600052603260045260246000fd5b1a60f81b8282815181106127e0577f4e487b7100000000000000000000000000000000000000000000000000000000600052603260045260246000fd5b60200101907effffffffffffffffffffffffffffffffffffffffffffffffffffffffffffff1916908160001a905350600485901c94508061282090613833565b905061273e565b506000841461286b576040517f08c379a000000000000000000000000000000000000000000000000000000000815260040161286290613354565b60405180910390fd5b8091505092915050565b6001816000016000828254019250508190555050565b600082826040516020016128a0929190613157565b60405160208183030381529060405280519060200120905092915050565b600080836001016000848152602001908152602001600020541415905092915050565b6128ec8383836128f1565b505050565b6128fc838383612949565b612904610b90565b15612944576040517f08c379a000000000000000000000000000000000000000000000000000000000815260040161293b90613614565b60405180910390fd5b505050565b505050565b60008135905061295d81613fe1565b92915050565b60008135905061297281613ff8565b92915050565b6000813590506129878161400f565b92915050565b60008083601f84011261299f57600080fd5b8235905067ffffffffffffffff8111156129b857600080fd5b6020830191508360018202830111156129d057600080fd5b9250929050565b6000813590506129e681614026565b92915050565b6000813590506129fb8161403d565b92915050565b600060208284031215612a1357600080fd5b6000612a218482850161294e565b91505092915050565b60008060408385031215612a3d57600080fd5b6000612a4b8582860161294e565b9250506020612a5c8582860161294e565b9150509250929050565b600080600060608486031215612a7b57600080fd5b6000612a898682870161294e565b9350506020612a9a8682870161294e565b9250506040612aab868287016129d7565b9150509250925092565b600080600080600080600060e0888a031215612ad057600080fd5b6000612ade8a828b0161294e565b9750506020612aef8a828b0161294e565b9650506040612b008a828b016129d7565b9550506060612b118a828b016129d7565b9450506080612b228a828b016129ec565b93505060a0612b338a828b01612963565b92505060c0612b448a828b01612963565b91505092959891949750929550565b600080600060408486031215612b6857600080fd5b6000612b768682870161294e565b935050602084013567ffffffffffffffff811115612b9357600080fd5b612b9f8682870161298d565b92509250509250925092565b60008060408385031215612bbe57600080fd5b6000612bcc8582860161294e565b9250506020612bdd858286016129d7565b9150509250929050565b600060208284031215612bf957600080fd5b6000612c0784828501612963565b91505092915050565b60008060408385031215612c2357600080fd5b6000612c3185828601612963565b9250506020612c428582860161294e565b9150509250929050565b60008060408385031215612c5f57600080fd5b6000612c6d85828601612963565b9250506020612c7e858286016129d7565b9150509250929050565b600060208284031215612c9a57600080fd5b6000612ca884828501612978565b91505092915050565b600060208284031215612cc357600080fd5b6000612cd1848285016129d7565b91505092915050565b612ce381613775565b82525050565b612cf281613787565b82525050565b612d0181613793565b82525050565b612d18612d1382613793565b61388f565b82525050565b6000612d298261366a565b612d338185613675565b9350612d43818560208601613800565b612d4c816138f7565b840191505092915050565b6000612d628261366a565b612d6c8185613686565b9350612d7c818560208601613800565b80840191505092915050565b6000612d95601883613675565b9150612da082613908565b602082019050919050565b6000612db8602083613675565b9150612dc382613931565b602082019050919050565b6000612ddb602383613675565b9150612de68261395a565b604082019050919050565b6000612dfe601483613675565b9150612e09826139a9565b602082019050919050565b6000612e21602283613675565b9150612e2c826139d2565b604082019050919050565b6000612e44603983613675565b9150612e4f82613a21565b604082019050919050565b6000612e67602283613675565b9150612e7282613a70565b604082019050919050565b6000612e8a600283613686565b9150612e9582613abf565b600282019050919050565b6000612ead601d83613675565b9150612eb882613ae8565b602082019050919050565b6000612ed0602683613675565b9150612edb82613b11565b604082019050919050565b6000612ef3602283613675565b9150612efe82613b60565b604082019050919050565b6000612f16601083613675565b9150612f2182613baf565b602082019050919050565b6000612f39602283613675565b9150612f4482613bd8565b604082019050919050565b6000612f5c601e83613675565b9150612f6782613c27565b602082019050919050565b6000612f7f602883613675565b9150612f8a82613c50565b604082019050919050565b6000612fa2603683613675565b9150612fad82613c9f565b604082019050919050565b6000612fc5602483613675565b9150612fd082613cee565b604082019050919050565b6000612fe8602183613675565b9150612ff382613d3d565b604082019050919050565b600061300b602583613675565b915061301682613d8c565b604082019050919050565b600061302e602483613675565b915061303982613ddb565b604082019050919050565b6000613051603783613675565b915061305c82613e2a565b604082019050919050565b6000613074601783613686565b915061307f82613e79565b601782019050919050565b6000613097602583613675565b91506130a282613ea2565b604082019050919050565b60006130ba601183613686565b91506130c582613ef1565b601182019050919050565b60006130dd602f83613675565b91506130e882613f1a565b604082019050919050565b6000613100601f83613675565b915061310b82613f69565b602082019050919050565b6000613123602a83613675565b915061312e82613f92565b604082019050919050565b613142816137e9565b82525050565b613151816137f3565b82525050565b600061316282612e7d565b915061316e8285612d07565b60208201915061317e8284612d07565b6020820191508190509392505050565b600061319982613067565b91506131a58285612d57565b91506131b0826130ad565b91506131bc8284612d57565b91508190509392505050565b60006020820190506131dd6000830184612cda565b92915050565b60006020820190506131f86000830184612ce9565b92915050565b60006020820190506132136000830184612cf8565b92915050565b600060c08201905061322e6000830189612cf8565b61323b6020830188612cda565b6132486040830187612cda565b6132556060830186613139565b6132626080830185613139565b61326f60a0830184613139565b979650505050505050565b600060a08201905061328f6000830188612cf8565b61329c6020830187612cf8565b6132a96040830186612cf8565b6132b66060830185613139565b6132c36080830184612cda565b9695505050505050565b60006080820190506132e26000830187612cf8565b6132ef6020830186613148565b6132fc6040830185612cf8565b6133096060830184612cf8565b95945050505050565b6000602082019050818103600083015261332c8184612d1e565b905092915050565b6000602082019050818103600083015261334d81612d88565b9050919050565b6000602082019050818103600083015261336d81612dab565b9050919050565b6000602082019050818103600083015261338d81612dce565b9050919050565b600060208201905081810360008301526133ad81612df1565b9050919050565b600060208201905081810360008301526133cd81612e14565b9050919050565b600060208201905081810360008301526133ed81612e37565b9050919050565b6000602082019050818103600083015261340d81612e5a565b9050919050565b6000602082019050818103600083015261342d81612ea0565b9050919050565b6000602082019050818103600083015261344d81612ec3565b9050919050565b6000602082019050818103600083015261346d81612ee6565b9050919050565b6000602082019050818103600083015261348d81612f09565b9050919050565b600060208201905081810360008301526134ad81612f2c565b9050919050565b600060208201905081810360008301526134cd81612f4f565b9050919050565b600060208201905081810360008301526134ed81612f72565b9050919050565b6000602082019050818103600083015261350d81612f95565b9050919050565b6000602082019050818103600083015261352d81612fb8565b9050919050565b6000602082019050818103600083015261354d81612fdb565b9050919050565b6000602082019050818103600083015261356d81612ffe565b9050919050565b6000602082019050818103600083015261358d81613021565b9050919050565b600060208201905081810360008301526135ad81613044565b9050919050565b600060208201905081810360008301526135cd8161308a565b9050919050565b600060208201905081810360008301526135ed816130d0565b9050919050565b6000602082019050818103600083015261360d816130f3565b9050919050565b6000602082019050818103600083015261362d81613116565b9050919050565b60006020820190506136496000830184613139565b92915050565b60006020820190506136646000830184613148565b92915050565b600081519050919050565b600082825260208201905092915050565b600081905092915050565b600061369c826137e9565b91506136a7836137e9565b9250827fffffffffffffffffffffffffffffffffffffffffffffffffffffffffffffffff038211156136dc576136db613899565b5b828201905092915050565b60006136f2826137e9565b91506136fd836137e9565b9250817fffffffffffffffffffffffffffffffffffffffffffffffffffffffffffffffff048311821515161561373657613735613899565b5b828202905092915050565b600061374c826137e9565b9150613757836137e9565b92508282101561376a57613769613899565b5b828203905092915050565b6000613780826137c9565b9050919050565b60008115159050919050565b6000819050919050565b60007fffffffff0000000000000000000000000000000000000000000000000000000082169050919050565b600073ffffffffffffffffffffffffffffffffffffffff82169050919050565b6000819050919050565b600060ff82169050919050565b60005b8381101561381e578082015181840152602081019050613803565b8381111561382d576000848401525b50505050565b600061383e826137e9565b9150600082141561385257613851613899565b5b600182039050919050565b6000600282049050600182168061387557607f821691505b60208210811415613889576138886138c8565b5b50919050565b6000819050919050565b7f4e487b7100000000000000000000000000000000000000000000000000000000600052601160045260246000fd5b7f4e487b7100000000000000000000000000000000000000000000000000000000600052602260045260246000fd5b6000601f19601f8301169050919050565b7f45434453413a20696e76616c6964207369676e61747572650000000000000000600082015250565b7f537472696e67733a20686578206c656e67746820696e73756666696369656e74600082015250565b7f45524332303a207472616e7366657220746f20746865207a65726f206164647260008201527f6573730000000000000000000000000000000000000000000000000000000000602082015250565b7f5061757361626c653a206e6f7420706175736564000000000000000000000000600082015250565b7f45524332303a206275726e20616d6f756e7420657863656564732062616c616e60008201527f6365000000000000000000000000000000000000000000000000000000000000602082015250565b7f45524332305072657365744d696e7465725061757365723a206d75737420686160008201527f76652070617573657220726f6c6520746f20756e706175736500000000000000602082015250565b7f45524332303a20617070726f766520746f20746865207a65726f20616464726560008201527f7373000000000000000000000000000000000000000000000000000000000000602082015250565b7f1901000000000000000000000000000000000000000000000000000000000000600082015250565b7f45524332305065726d69743a206578706972656420646561646c696e65000000600082015250565b7f45524332303a207472616e7366657220616d6f756e742065786365656473206260008201527f616c616e63650000000000000000000000000000000000000000000000000000602082015250565b7f45434453413a20696e76616c6964207369676e6174757265202773272076616c60008201527f7565000000000000000000000000000000000000000000000000000000000000602082015250565b7f5061757361626c653a2070617573656400000000000000000000000000000000600082015250565b7f45434453413a20696e76616c6964207369676e6174757265202776272076616c60008201527f7565000000000000000000000000000000000000000000000000000000000000602082015250565b7f45524332305065726d69743a20696e76616c6964207369676e61747572650000600082015250565b7f45524332303a207472616e7366657220616d6f756e742065786365656473206160008201527f6c6c6f77616e6365000000000000000000000000000000000000000000000000602082015250565b7f45524332305072657365744d696e7465725061757365723a206d75737420686160008201527f7665206d696e74657220726f6c6520746f206d696e7400000000000000000000602082015250565b7f45524332303a206275726e20616d6f756e74206578636565647320616c6c6f7760008201527f616e636500000000000000000000000000000000000000000000000000000000602082015250565b7f45524332303a206275726e2066726f6d20746865207a65726f2061646472657360008201527f7300000000000000000000000000000000000000000000000000000000000000602082015250565b7f45524332303a207472616e736665722066726f6d20746865207a65726f20616460008201527f6472657373000000000000000000000000000000000000000000000000000000602082015250565b7f45524332303a20617070726f76652066726f6d20746865207a65726f2061646460008201527f7265737300000000000000000000000000000000000000000000000000000000602082015250565b7f45524332305072657365744d696e7465725061757365723a206d75737420686160008201527f76652070617573657220726f6c6520746f207061757365000000000000000000602082015250565b7f416363657373436f6e74726f6c3a206163636f756e7420000000000000000000600082015250565b7f45524332303a2064656372656173656420616c6c6f77616e63652062656c6f7760008201527f207a65726f000000000000000000000000000000000000000000000000000000602082015250565b7f206973206d697373696e6720726f6c6520000000000000000000000000000000600082015250565b7f416363657373436f6e74726f6c3a2063616e206f6e6c792072656e6f756e636560008201527f20726f6c657320666f722073656c660000000000000000000000000000000000602082015250565b7f45524332303a206d696e7420746f20746865207a65726f206164647265737300600082015250565b7f45524332305061757361626c653a20746f6b656e207472616e7366657220776860008201527f696c652070617573656400000000000000000000000000000000000000000000602082015250565b613fea81613775565b8114613ff557600080fd5b50565b61400181613793565b811461400c57600080fd5b50565b6140188161379d565b811461402357600080fd5b50565b61402f816137e9565b811461403a57600080fd5b50565b614046816137f3565b811461405157600080fd5b5056fea2646970667358221220ada77ef011c3b21095b1852b2f91069c48d3e492af1898543e86e56b1501ba3f64736f6c63430008040033",
  "devdoc": {
    "kind": "dev",
    "methods": {
      "DOMAIN_SEPARATOR()": {
        "details": "See {IERC20Permit-DOMAIN_SEPARATOR}."
      },
      "allowance(address,address)": {
        "details": "See {IERC20-allowance}."
      },
      "approve(address,uint256)": {
        "details": "See {IERC20-approve}. Requirements: - `spender` cannot be the zero address."
      },
      "balanceOf(address)": {
        "details": "See {IERC20-balanceOf}."
      },
      "burn(uint256)": {
        "details": "Destroys `amount` tokens from the caller. See {ERC20-_burn}."
      },
      "burnFrom(address,uint256)": {
        "details": "Destroys `amount` tokens from `account`, deducting from the caller's allowance. See {ERC20-_burn} and {ERC20-allowance}. Requirements: - the caller must have allowance for ``accounts``'s tokens of at least `amount`."
      },
      "decimals()": {
        "details": "Returns the number of decimals used to get its user representation. For example, if `decimals` equals `2`, a balance of `505` tokens should be displayed to a user as `5,05` (`505 / 10 ** 2`). Tokens usually opt for a value of 18, imitating the relationship between Ether and Wei. This is the value {ERC20} uses, unless this function is overridden; NOTE: This information is only used for _display_ purposes: it in no way affects any of the arithmetic of the contract, including {IERC20-balanceOf} and {IERC20-transfer}."
      },
      "decreaseAllowance(address,uint256)": {
        "details": "Atomically decreases the allowance granted to `spender` by the caller. This is an alternative to {approve} that can be used as a mitigation for problems described in {IERC20-approve}. Emits an {Approval} event indicating the updated allowance. Requirements: - `spender` cannot be the zero address. - `spender` must have allowance for the caller of at least `subtractedValue`."
      },
      "deposit(address,bytes)": {
        "details": "Should be callable only by ChildChainManager Should handle deposit by minting the required amount for user, not to create new tokens, but to move tokens previously swapped to the root chain back to the child chain",
        "params": {
          "depositData": "abi encoded amount",
          "user": "user address for whom deposit is being done"
        }
      },
      "getRoleAdmin(bytes32)": {
        "details": "Returns the admin role that controls `role`. See {grantRole} and {revokeRole}. To change a role's admin, use {_setRoleAdmin}."
      },
      "getRoleMember(bytes32,uint256)": {
        "details": "Returns one of the accounts that have `role`. `index` must be a value between 0 and {getRoleMemberCount}, non-inclusive. Role bearers are not sorted in any particular way, and their ordering may change at any point. WARNING: When using {getRoleMember} and {getRoleMemberCount}, make sure you perform all queries on the same block. See the following https://forum.openzeppelin.com/t/iterating-over-elements-on-enumerableset-in-openzeppelin-contracts/2296[forum post] for more information."
      },
      "getRoleMemberCount(bytes32)": {
        "details": "Returns the number of accounts that have `role`. Can be used together with {getRoleMember} to enumerate all bearers of a role."
      },
      "grantRole(bytes32,address)": {
        "details": "Overload {grantRole} to track enumerable memberships"
      },
      "hasRole(bytes32,address)": {
        "details": "Returns `true` if `account` has been granted `role`."
      },
      "increaseAllowance(address,uint256)": {
        "details": "Atomically increases the allowance granted to `spender` by the caller. This is an alternative to {approve} that can be used as a mitigation for problems described in {IERC20-approve}. Emits an {Approval} event indicating the updated allowance. Requirements: - `spender` cannot be the zero address."
      },
      "layer1Supply()": {
        "details": "Obtain the supply of tokens that were moved to layer 1 (Ethereum) through the Polygon PoS bridge."
      },
      "mint(address,uint256)": {
        "details": "Creates `amount` new tokens for `to`. See {ERC20-_mint}. Requirements: - the caller must have the `MINTER_ROLE`."
      },
      "name()": {
        "details": "Returns the name of the token."
      },
      "nonces(address)": {
        "details": "See {IERC20Permit-nonces}."
      },
      "pause()": {
        "details": "Pauses all token transfers. See {ERC20Pausable} and {Pausable-_pause}. Requirements: - the caller must have the `PAUSER_ROLE`."
      },
      "paused()": {
        "details": "Returns true if the contract is paused, and false otherwise."
      },
      "permit(address,address,uint256,uint256,uint8,bytes32,bytes32)": {
        "details": "See {IERC20Permit-permit}."
      },
      "renounceRole(bytes32,address)": {
        "details": "Overload {renounceRole} to track enumerable memberships"
      },
      "revokeRole(bytes32,address)": {
        "details": "Overload {revokeRole} to track enumerable memberships"
      },
      "supportsInterface(bytes4)": {
        "details": "See {IERC165-supportsInterface}."
      },
      "symbol()": {
        "details": "Returns the symbol of the token, usually a shorter version of the name."
      },
      "totalSupply()": {
        "details": "See {IERC20-totalSupply}."
      },
      "transfer(address,uint256)": {
        "details": "See {IERC20-transfer}. Requirements: - `recipient` cannot be the zero address. - the caller must have a balance of at least `amount`."
      },
      "transferFrom(address,address,uint256)": {
        "details": "See {IERC20-transferFrom}. Emits an {Approval} event indicating the updated allowance. This is not required by the EIP. See the note at the beginning of {ERC20}. Requirements: - `sender` and `recipient` cannot be the zero address. - `sender` must have a balance of at least `amount`. - the caller must have allowance for ``sender``'s tokens of at least `amount`."
      },
      "unpause()": {
        "details": "Unpauses all token transfers. See {ERC20Pausable} and {Pausable-_unpause}. Requirements: - the caller must have the `PAUSER_ROLE`."
      },
      "withdraw(uint256)": {
        "details": "Should burn user's tokens. This transaction will be verified when exiting on root chain",
        "params": {
          "amount": "amount of tokens to withdraw"
        }
      }
    },
    "version": 1
  },
  "userdoc": {
    "kind": "user",
    "methods": {
      "deposit(address,bytes)": {
        "notice": "called when token is deposited on root chain"
      },
      "withdraw(uint256)": {
        "notice": "called when user wants to withdraw tokens back to root chain"
      }
    },
    "version": 1
  },
  "storageLayout": {
    "storage": [
      {
        "astId": 1538,
        "contract": "contracts/token/DailyCopTokenChild.sol:DailyCopTokenChild",
        "label": "_roles",
        "offset": 0,
        "slot": "0",
        "type": "t_mapping(t_bytes32,t_struct(RoleData)1533_storage)"
      },
      {
        "astId": 1879,
        "contract": "contracts/token/DailyCopTokenChild.sol:DailyCopTokenChild",
        "label": "_roleMembers",
        "offset": 0,
        "slot": "1",
        "type": "t_mapping(t_bytes32,t_struct(AddressSet)4151_storage)"
      },
      {
        "astId": 2141,
        "contract": "contracts/token/DailyCopTokenChild.sol:DailyCopTokenChild",
        "label": "_balances",
        "offset": 0,
        "slot": "2",
        "type": "t_mapping(t_address,t_uint256)"
      },
      {
        "astId": 2147,
        "contract": "contracts/token/DailyCopTokenChild.sol:DailyCopTokenChild",
        "label": "_allowances",
        "offset": 0,
        "slot": "3",
        "type": "t_mapping(t_address,t_mapping(t_address,t_uint256))"
      },
      {
        "astId": 2149,
        "contract": "contracts/token/DailyCopTokenChild.sol:DailyCopTokenChild",
        "label": "_totalSupply",
        "offset": 0,
        "slot": "4",
        "type": "t_uint256"
      },
      {
        "astId": 2151,
        "contract": "contracts/token/DailyCopTokenChild.sol:DailyCopTokenChild",
        "label": "_name",
        "offset": 0,
        "slot": "5",
        "type": "t_string_storage"
      },
      {
        "astId": 2153,
        "contract": "contracts/token/DailyCopTokenChild.sol:DailyCopTokenChild",
        "label": "_symbol",
        "offset": 0,
        "slot": "6",
        "type": "t_string_storage"
      },
      {
        "astId": 2051,
        "contract": "contracts/token/DailyCopTokenChild.sol:DailyCopTokenChild",
        "label": "_paused",
        "offset": 0,
        "slot": "7",
        "type": "t_bool"
      },
      {
        "astId": 2896,
        "contract": "contracts/token/DailyCopTokenChild.sol:DailyCopTokenChild",
        "label": "_nonces",
        "offset": 0,
        "slot": "8",
        "type": "t_mapping(t_address,t_struct(Counter)3241_storage)"
      },
      {
        "astId": 4503,
        "contract": "contracts/token/DailyCopTokenChild.sol:DailyCopTokenChild",
        "label": "_layer1Supply",
        "offset": 0,
        "slot": "9",
        "type": "t_uint256"
      }
    ],
    "types": {
      "t_address": {
        "encoding": "inplace",
        "label": "address",
        "numberOfBytes": "20"
      },
      "t_array(t_bytes32)dyn_storage": {
        "base": "t_bytes32",
        "encoding": "dynamic_array",
        "label": "bytes32[]",
        "numberOfBytes": "32"
      },
      "t_bool": {
        "encoding": "inplace",
        "label": "bool",
        "numberOfBytes": "1"
      },
      "t_bytes32": {
        "encoding": "inplace",
        "label": "bytes32",
        "numberOfBytes": "32"
      },
      "t_mapping(t_address,t_bool)": {
        "encoding": "mapping",
        "key": "t_address",
        "label": "mapping(address => bool)",
        "numberOfBytes": "32",
        "value": "t_bool"
      },
      "t_mapping(t_address,t_mapping(t_address,t_uint256))": {
        "encoding": "mapping",
        "key": "t_address",
        "label": "mapping(address => mapping(address => uint256))",
        "numberOfBytes": "32",
        "value": "t_mapping(t_address,t_uint256)"
      },
      "t_mapping(t_address,t_struct(Counter)3241_storage)": {
        "encoding": "mapping",
        "key": "t_address",
        "label": "mapping(address => struct Counters.Counter)",
        "numberOfBytes": "32",
        "value": "t_struct(Counter)3241_storage"
      },
      "t_mapping(t_address,t_uint256)": {
        "encoding": "mapping",
        "key": "t_address",
        "label": "mapping(address => uint256)",
        "numberOfBytes": "32",
        "value": "t_uint256"
      },
      "t_mapping(t_bytes32,t_struct(AddressSet)4151_storage)": {
        "encoding": "mapping",
        "key": "t_bytes32",
        "label": "mapping(bytes32 => struct EnumerableSet.AddressSet)",
        "numberOfBytes": "32",
        "value": "t_struct(AddressSet)4151_storage"
      },
      "t_mapping(t_bytes32,t_struct(RoleData)1533_storage)": {
        "encoding": "mapping",
        "key": "t_bytes32",
        "label": "mapping(bytes32 => struct AccessControl.RoleData)",
        "numberOfBytes": "32",
        "value": "t_struct(RoleData)1533_storage"
      },
      "t_mapping(t_bytes32,t_uint256)": {
        "encoding": "mapping",
        "key": "t_bytes32",
        "label": "mapping(bytes32 => uint256)",
        "numberOfBytes": "32",
        "value": "t_uint256"
      },
      "t_string_storage": {
        "encoding": "bytes",
        "label": "string",
        "numberOfBytes": "32"
      },
      "t_struct(AddressSet)4151_storage": {
        "encoding": "inplace",
        "label": "struct EnumerableSet.AddressSet",
        "members": [
          {
            "astId": 4150,
            "contract": "contracts/token/DailyCopTokenChild.sol:DailyCopTokenChild",
            "label": "_inner",
            "offset": 0,
            "slot": "0",
            "type": "t_struct(Set)3880_storage"
          }
        ],
        "numberOfBytes": "64"
      },
      "t_struct(Counter)3241_storage": {
        "encoding": "inplace",
        "label": "struct Counters.Counter",
        "members": [
          {
            "astId": 3240,
            "contract": "contracts/token/DailyCopTokenChild.sol:DailyCopTokenChild",
            "label": "_value",
            "offset": 0,
            "slot": "0",
            "type": "t_uint256"
          }
        ],
        "numberOfBytes": "32"
      },
      "t_struct(RoleData)1533_storage": {
        "encoding": "inplace",
        "label": "struct AccessControl.RoleData",
        "members": [
          {
            "astId": 1530,
            "contract": "contracts/token/DailyCopTokenChild.sol:DailyCopTokenChild",
            "label": "members",
            "offset": 0,
            "slot": "0",
            "type": "t_mapping(t_address,t_bool)"
          },
          {
            "astId": 1532,
            "contract": "contracts/token/DailyCopTokenChild.sol:DailyCopTokenChild",
            "label": "adminRole",
            "offset": 0,
            "slot": "1",
            "type": "t_bytes32"
          }
        ],
        "numberOfBytes": "64"
      },
      "t_struct(Set)3880_storage": {
        "encoding": "inplace",
        "label": "struct EnumerableSet.Set",
        "members": [
          {
            "astId": 3875,
            "contract": "contracts/token/DailyCopTokenChild.sol:DailyCopTokenChild",
            "label": "_values",
            "offset": 0,
            "slot": "0",
            "type": "t_array(t_bytes32)dyn_storage"
          },
          {
            "astId": 3879,
            "contract": "contracts/token/DailyCopTokenChild.sol:DailyCopTokenChild",
            "label": "_indexes",
            "offset": 0,
            "slot": "1",
            "type": "t_mapping(t_bytes32,t_uint256)"
          }
        ],
        "numberOfBytes": "64"
      },
      "t_uint256": {
        "encoding": "inplace",
        "label": "uint256",
        "numberOfBytes": "32"
      }
    }
  }
}